{
  "_format": "hh-sol-artifact-1",
  "contractName": "InspiraSubscription",
  "sourceName": "contracts/InspiraSubscription.sol",
  "abi": [
    {
      "inputs": [
        {
          "internalType": "address",
          "name": "_inspiToken",
          "type": "address"
        },
        {
          "internalType": "address",
          "name": "_usdtToken",
          "type": "address"
        }
      ],
      "stateMutability": "nonpayable",
      "type": "constructor"
    },
    {
      "inputs": [
        {
          "internalType": "address",
          "name": "owner",
          "type": "address"
        }
      ],
      "name": "OwnableInvalidOwner",
      "type": "error"
    },
    {
      "inputs": [
        {
          "internalType": "address",
          "name": "account",
          "type": "address"
        }
      ],
      "name": "OwnableUnauthorizedAccount",
      "type": "error"
    },
    {
      "inputs": [],
      "name": "ReentrancyGuardReentrantCall",
      "type": "error"
    },
    {
      "anonymous": false,
      "inputs": [
        {
          "indexed": true,
          "internalType": "address",
          "name": "user",
          "type": "address"
        },
        {
          "indexed": false,
          "internalType": "uint256",
          "name": "credits",
          "type": "uint256"
        },
        {
          "indexed": false,
          "internalType": "string",
          "name": "paymentToken",
          "type": "string"
        }
      ],
      "name": "AdditionalCreditsPurchased",
      "type": "event"
    },
    {
      "anonymous": false,
      "inputs": [
        {
          "indexed": true,
          "internalType": "address",
          "name": "previousOwner",
          "type": "address"
        },
        {
          "indexed": true,
          "internalType": "address",
          "name": "newOwner",
          "type": "address"
        }
      ],
      "name": "OwnershipTransferred",
      "type": "event"
    },
    {
      "anonymous": false,
      "inputs": [
        {
          "indexed": false,
          "internalType": "enum InspiraSubscription.PlanType",
          "name": "planType",
          "type": "uint8"
        },
        {
          "indexed": false,
          "internalType": "uint256",
          "name": "credits",
          "type": "uint256"
        },
        {
          "indexed": false,
          "internalType": "uint256",
          "name": "inspiPrice",
          "type": "uint256"
        },
        {
          "indexed": false,
          "internalType": "uint256",
          "name": "usdtPrice",
          "type": "uint256"
        }
      ],
      "name": "PlanUpdated",
      "type": "event"
    },
    {
      "anonymous": false,
      "inputs": [
        {
          "indexed": true,
          "internalType": "address",
          "name": "user",
          "type": "address"
        },
        {
          "indexed": false,
          "internalType": "enum InspiraSubscription.PlanType",
          "name": "planType",
          "type": "uint8"
        },
        {
          "indexed": false,
          "internalType": "uint256",
          "name": "credits",
          "type": "uint256"
        },
        {
          "indexed": false,
          "internalType": "uint256",
          "name": "timestamp",
          "type": "uint256"
        }
      ],
      "name": "SubscriptionPurchased",
      "type": "event"
    },
    {
      "anonymous": false,
      "inputs": [
        {
          "indexed": false,
          "internalType": "address",
          "name": "token",
          "type": "address"
        },
        {
          "indexed": false,
          "internalType": "uint256",
          "name": "amount",
          "type": "uint256"
        }
      ],
      "name": "TokensWithdrawn",
      "type": "event"
    },
    {
      "inputs": [],
      "name": "ADDITIONAL_CREDITS",
      "outputs": [
        {
          "internalType": "uint256",
          "name": "",
          "type": "uint256"
        }
      ],
      "stateMutability": "view",
      "type": "function"
    },
    {
      "inputs": [],
      "name": "ADDITIONAL_CREDITS_INSPI_PRICE",
      "outputs": [
        {
          "internalType": "uint256",
          "name": "",
          "type": "uint256"
        }
      ],
      "stateMutability": "view",
      "type": "function"
    },
    {
      "inputs": [],
      "name": "ADDITIONAL_CREDITS_USDT_PRICE",
      "outputs": [
        {
          "internalType": "uint256",
          "name": "",
          "type": "uint256"
        }
      ],
      "stateMutability": "view",
      "type": "function"
    },
    {
      "inputs": [],
      "name": "buyAdditionalCreditsWithInspi",
      "outputs": [],
      "stateMutability": "nonpayable",
      "type": "function"
    },
    {
      "inputs": [],
      "name": "buyAdditionalCreditsWithUSDT",
      "outputs": [],
      "stateMutability": "nonpayable",
      "type": "function"
    },
    {
      "inputs": [
        {
          "internalType": "enum InspiraSubscription.PlanType",
          "name": "_planType",
          "type": "uint8"
        }
      ],
      "name": "getPlanDetails",
      "outputs": [
        {
          "internalType": "uint256",
          "name": "credits",
          "type": "uint256"
        },
        {
          "internalType": "uint256",
          "name": "inspiPrice",
          "type": "uint256"
        },
        {
          "internalType": "uint256",
          "name": "usdtPrice",
          "type": "uint256"
        }
      ],
      "stateMutability": "view",
      "type": "function"
    },
    {
      "inputs": [
        {
          "internalType": "address",
          "name": "_user",
          "type": "address"
        }
      ],
      "name": "getUserSubscription",
      "outputs": [
        {
          "internalType": "enum InspiraSubscription.PlanType",
          "name": "planType",
          "type": "uint8"
        },
        {
          "internalType": "uint256",
          "name": "subscribedAt",
          "type": "uint256"
        },
        {
          "internalType": "uint256",
          "name": "credits",
          "type": "uint256"
        }
      ],
      "stateMutability": "view",
      "type": "function"
    },
    {
      "inputs": [],
      "name": "inspiToken",
      "outputs": [
        {
          "internalType": "contract IERC20",
          "name": "",
          "type": "address"
        }
      ],
      "stateMutability": "view",
      "type": "function"
    },
    {
      "inputs": [],
      "name": "owner",
      "outputs": [
        {
          "internalType": "address",
          "name": "",
          "type": "address"
        }
      ],
      "stateMutability": "view",
      "type": "function"
    },
    {
      "inputs": [
        {
          "internalType": "enum InspiraSubscription.PlanType",
          "name": "",
          "type": "uint8"
        }
      ],
      "name": "plans",
      "outputs": [
        {
          "internalType": "uint256",
          "name": "credits",
          "type": "uint256"
        },
        {
          "internalType": "uint256",
          "name": "inspiPrice",
          "type": "uint256"
        },
        {
          "internalType": "uint256",
          "name": "usdtPrice",
          "type": "uint256"
        }
      ],
      "stateMutability": "view",
      "type": "function"
    },
    {
      "inputs": [],
      "name": "renounceOwnership",
      "outputs": [],
      "stateMutability": "nonpayable",
      "type": "function"
    },
    {
      "inputs": [
        {
          "internalType": "enum InspiraSubscription.PlanType",
          "name": "_planType",
          "type": "uint8"
        }
      ],
      "name": "subscribeWithInspi",
      "outputs": [],
      "stateMutability": "nonpayable",
      "type": "function"
    },
    {
      "inputs": [
        {
          "internalType": "enum InspiraSubscription.PlanType",
          "name": "_planType",
          "type": "uint8"
        }
      ],
      "name": "subscribeWithUSDT",
      "outputs": [],
      "stateMutability": "nonpayable",
      "type": "function"
    },
    {
      "inputs": [
        {
          "internalType": "address",
          "name": "",
          "type": "address"
        }
      ],
      "name": "subscriptions",
      "outputs": [
        {
          "internalType": "enum InspiraSubscription.PlanType",
          "name": "planType",
          "type": "uint8"
        },
        {
          "internalType": "uint256",
          "name": "subscribedAt",
          "type": "uint256"
        },
        {
          "internalType": "uint256",
          "name": "credits",
          "type": "uint256"
        }
      ],
      "stateMutability": "view",
      "type": "function"
    },
    {
      "inputs": [
        {
          "internalType": "address",
          "name": "newOwner",
          "type": "address"
        }
      ],
      "name": "transferOwnership",
      "outputs": [],
      "stateMutability": "nonpayable",
      "type": "function"
    },
    {
      "inputs": [
        {
          "internalType": "enum InspiraSubscription.PlanType",
          "name": "_planType",
          "type": "uint8"
        },
        {
          "internalType": "uint256",
          "name": "_credits",
          "type": "uint256"
        },
        {
          "internalType": "uint256",
          "name": "_inspiPrice",
          "type": "uint256"
        },
        {
          "internalType": "uint256",
          "name": "_usdtPrice",
          "type": "uint256"
        }
      ],
      "name": "updatePlan",
      "outputs": [],
      "stateMutability": "nonpayable",
      "type": "function"
    },
    {
      "inputs": [],
      "name": "usdtToken",
      "outputs": [
        {
          "internalType": "contract IERC20",
          "name": "",
          "type": "address"
        }
      ],
      "stateMutability": "view",
      "type": "function"
    },
    {
      "inputs": [
        {
          "internalType": "uint256",
          "name": "_amount",
          "type": "uint256"
        }
      ],
      "name": "withdrawInspi",
      "outputs": [],
      "stateMutability": "nonpayable",
      "type": "function"
    },
    {
      "inputs": [
        {
          "internalType": "uint256",
          "name": "_amount",
          "type": "uint256"
        }
      ],
      "name": "withdrawUSDT",
      "outputs": [],
      "stateMutability": "nonpayable",
      "type": "function"
    }
  ],
  "bytecode": "0x608060405234801561001057600080fd5b5060405161288138038061288183398181016040528101906100329190610372565b33600073ffffffffffffffffffffffffffffffffffffffff168173ffffffffffffffffffffffffffffffffffffffff16036100a55760006040517f1e4fbdf700000000000000000000000000000000000000000000000000000000815260040161009c91906103c1565b60405180910390fd5b6100b48161024b60201b60201c565b506001808190555081600260006101000a81548173ffffffffffffffffffffffffffffffffffffffff021916908373ffffffffffffffffffffffffffffffffffffffff16021790555080600360006101000a81548173ffffffffffffffffffffffffffffffffffffffff021916908373ffffffffffffffffffffffffffffffffffffffff16021790555060405180606001604052806101f4815260200169010f0cf064dd59200000815260200163017d7840815250600560008060018111156101805761017f6103dc565b5b6001811115610192576101916103dc565b5b815260200190815260200160002060008201518160000155602082015181600101556040820151816002015590505060405180606001604052806105dc815260200169028a857425466f8000008152602001630393870081525060056000600180811115610203576102026103dc565b5b6001811115610215576102146103dc565b5b8152602001908152602001600020600082015181600001556020820151816001015560408201518160020155905050505061040b565b60008060009054906101000a900473ffffffffffffffffffffffffffffffffffffffff169050816000806101000a81548173ffffffffffffffffffffffffffffffffffffffff021916908373ffffffffffffffffffffffffffffffffffffffff1602179055508173ffffffffffffffffffffffffffffffffffffffff168173ffffffffffffffffffffffffffffffffffffffff167f8be0079c531659141344cd1fd0a4f28419497f9722a3daafe3b4186f6b6457e060405160405180910390a35050565b600080fd5b600073ffffffffffffffffffffffffffffffffffffffff82169050919050565b600061033f82610314565b9050919050565b61034f81610334565b811461035a57600080fd5b50565b60008151905061036c81610346565b92915050565b600080604083850312156103895761038861030f565b5b60006103978582860161035d565b92505060206103a88582860161035d565b9150509250929050565b6103bb81610334565b82525050565b60006020820190506103d660008301846103b2565b92915050565b7f4e487b7100000000000000000000000000000000000000000000000000000000600052602160045260246000fd5b6124678061041a6000396000f3fe608060405234801561001057600080fd5b50600436106101215760003560e01c8063918f5b48116100ad578063de3db3f811610071578063de3db3f8146102ae578063ebbeec08146102cc578063f046395a146102fe578063f2fde38b14610330578063f84c1c221461034c57610121565b8063918f5b481461021a57806393de42ed14610238578063a98ad46c14610254578063bb8a05f214610272578063c95635601461027c57610121565b80636627af2e116100f45780636627af2e1461019c5780636a4df6a7146101ba5780636b8d8c7a146101d6578063715018a6146101f25780638da5cb5b146101fc57610121565b8063390a9fb2146101265780633ea521ef1461013057806343a9ce1c1461014c57806360a31a881461016a575b600080fd5b61012e610368565b005b61014a60048036038101906101459190611ba8565b610712565b005b6101546108fe565b6040516101619190611be4565b60405180910390f35b610184600480360381019061017f9190611c24565b610905565b60405161019393929190611c51565b60405180910390f35b6101a461092f565b6040516101b19190611d07565b60405180910390f35b6101d460048036038101906101cf9190611c24565b610955565b005b6101f060048036038101906101eb9190611c24565b610c43565b005b6101fa610f31565b005b610204610f45565b6040516102119190611d43565b60405180910390f35b610222610f6e565b60405161022f9190611be4565b60405180910390f35b610252600480360381019061024d9190611d5e565b610f73565b005b61025c61107b565b6040516102699190611d07565b60405180910390f35b61027a6110a1565b005b61029660048036038101906102919190611c24565b61145d565b6040516102a593929190611c51565b60405180910390f35b6102b66114e2565b6040516102c39190611be4565b60405180910390f35b6102e660048036038101906102e19190611df1565b6114ef565b6040516102f593929190611e95565b60405180910390f35b61031860048036038101906103139190611df1565b6115ad565b60405161032793929190611e95565b60405180910390f35b61034a60048036038101906103459190611df1565b6115e4565b005b61036660048036038101906103619190611ba8565b61166a565b005b610370611856565b6000600460003373ffffffffffffffffffffffffffffffffffffffff1673ffffffffffffffffffffffffffffffffffffffff16815260200190815260200160002060010154116103f5576040517f08c379a00000000000000000000000000000000000000000000000000000000081526004016103ec90611f29565b60405180910390fd5b621e8480600360009054906101000a900473ffffffffffffffffffffffffffffffffffffffff1673ffffffffffffffffffffffffffffffffffffffff166370a08231336040518263ffffffff1660e01b81526004016104549190611d43565b602060405180830381865afa158015610471573d6000803e3d6000fd5b505050506040513d601f19601f820116820180604052508101906104959190611f5e565b10156104d6576040517f08c379a00000000000000000000000000000000000000000000000000000000081526004016104cd90611fd7565b60405180910390fd5b621e8480600360009054906101000a900473ffffffffffffffffffffffffffffffffffffffff1673ffffffffffffffffffffffffffffffffffffffff1663dd62ed3e33306040518363ffffffff1660e01b8152600401610537929190611ff7565b602060405180830381865afa158015610554573d6000803e3d6000fd5b505050506040513d601f19601f820116820180604052508101906105789190611f5e565b10156105b9576040517f08c379a00000000000000000000000000000000000000000000000000000000081526004016105b09061206c565b60405180910390fd5b600360009054906101000a900473ffffffffffffffffffffffffffffffffffffffff1673ffffffffffffffffffffffffffffffffffffffff166323b872dd3330621e84806040518463ffffffff1660e01b815260040161061b9392919061208c565b6020604051808303816000875af115801561063a573d6000803e3d6000fd5b505050506040513d601f19601f8201168201806040525081019061065e91906120fb565b506014600460003373ffffffffffffffffffffffffffffffffffffffff1673ffffffffffffffffffffffffffffffffffffffff16815260200190815260200160002060020160008282546106b29190612157565b925050819055503373ffffffffffffffffffffffffffffffffffffffff167f9238675027fa3007a5a5ac295b8ea3359177f7801d27d871dbcfc1a2d0b70b4a601460405161070091906121d7565b60405180910390a261071061189c565b565b61071a6118a5565b600360009054906101000a900473ffffffffffffffffffffffffffffffffffffffff1673ffffffffffffffffffffffffffffffffffffffff166370a08231306040518263ffffffff1660e01b81526004016107759190611d43565b602060405180830381865afa158015610792573d6000803e3d6000fd5b505050506040513d601f19601f820116820180604052508101906107b69190611f5e565b8111156107f8576040517f08c379a00000000000000000000000000000000000000000000000000000000081526004016107ef90612251565b60405180910390fd5b600360009054906101000a900473ffffffffffffffffffffffffffffffffffffffff1673ffffffffffffffffffffffffffffffffffffffff1663a9059cbb61083e610f45565b836040518363ffffffff1660e01b815260040161085c929190612271565b6020604051808303816000875af115801561087b573d6000803e3d6000fd5b505050506040513d601f19601f8201168201806040525081019061089f91906120fb565b507f6352c5382c4a4578e712449ca65e83cdb392d045dfcf1cad9615189db2da244b600360009054906101000a900473ffffffffffffffffffffffffffffffffffffffff16826040516108f3929190612271565b60405180910390a150565b621e848081565b60056020528060005260406000206000915090508060000154908060010154908060020154905083565b600260009054906101000a900473ffffffffffffffffffffffffffffffffffffffff1681565b61095d611856565b60006005600083600181111561097657610975611e1e565b5b600181111561098857610987611e1e565b5b8152602001908152602001600020604051806060016040529081600082015481526020016001820154815260200160028201548152505090508060200151600260009054906101000a900473ffffffffffffffffffffffffffffffffffffffff1673ffffffffffffffffffffffffffffffffffffffff166370a08231336040518263ffffffff1660e01b8152600401610a219190611d43565b602060405180830381865afa158015610a3e573d6000803e3d6000fd5b505050506040513d601f19601f82011682018060405250810190610a629190611f5e565b1015610aa3576040517f08c379a0000000000000000000000000000000000000000000000000000000008152600401610a9a906122e6565b60405180910390fd5b8060200151600260009054906101000a900473ffffffffffffffffffffffffffffffffffffffff1673ffffffffffffffffffffffffffffffffffffffff1663dd62ed3e33306040518363ffffffff1660e01b8152600401610b05929190611ff7565b602060405180830381865afa158015610b22573d6000803e3d6000fd5b505050506040513d601f19601f82011682018060405250810190610b469190611f5e565b1015610b87576040517f08c379a0000000000000000000000000000000000000000000000000000000008152600401610b7e90612352565b60405180910390fd5b600260009054906101000a900473ffffffffffffffffffffffffffffffffffffffff1673ffffffffffffffffffffffffffffffffffffffff166323b872dd333084602001516040518463ffffffff1660e01b8152600401610bea9392919061208c565b6020604051808303816000875af1158015610c09573d6000803e3d6000fd5b505050506040513d601f19601f82011682018060405250810190610c2d91906120fb565b50610c378261192c565b50610c4061189c565b50565b610c4b611856565b600060056000836001811115610c6457610c63611e1e565b5b6001811115610c7657610c75611e1e565b5b8152602001908152602001600020604051806060016040529081600082015481526020016001820154815260200160028201548152505090508060400151600360009054906101000a900473ffffffffffffffffffffffffffffffffffffffff1673ffffffffffffffffffffffffffffffffffffffff166370a08231336040518263ffffffff1660e01b8152600401610d0f9190611d43565b602060405180830381865afa158015610d2c573d6000803e3d6000fd5b505050506040513d601f19601f82011682018060405250810190610d509190611f5e565b1015610d91576040517f08c379a0000000000000000000000000000000000000000000000000000000008152600401610d8890611fd7565b60405180910390fd5b8060400151600360009054906101000a900473ffffffffffffffffffffffffffffffffffffffff1673ffffffffffffffffffffffffffffffffffffffff1663dd62ed3e33306040518363ffffffff1660e01b8152600401610df3929190611ff7565b602060405180830381865afa158015610e10573d6000803e3d6000fd5b505050506040513d601f19601f82011682018060405250810190610e349190611f5e565b1015610e75576040517f08c379a0000000000000000000000000000000000000000000000000000000008152600401610e6c9061206c565b60405180910390fd5b600360009054906101000a900473ffffffffffffffffffffffffffffffffffffffff1673ffffffffffffffffffffffffffffffffffffffff166323b872dd333084604001516040518463ffffffff1660e01b8152600401610ed89392919061208c565b6020604051808303816000875af1158015610ef7573d6000803e3d6000fd5b505050506040513d601f19601f82011682018060405250810190610f1b91906120fb565b50610f258261192c565b50610f2e61189c565b50565b610f396118a5565b610f436000611aa1565b565b60008060009054906101000a900473ffffffffffffffffffffffffffffffffffffffff16905090565b601481565b610f7b6118a5565b8260056000866001811115610f9357610f92611e1e565b5b6001811115610fa557610fa4611e1e565b5b8152602001908152602001600020600001819055508160056000866001811115610fd257610fd1611e1e565b5b6001811115610fe457610fe3611e1e565b5b815260200190815260200160002060010181905550806005600086600181111561101157611010611e1e565b5b600181111561102357611022611e1e565b5b8152602001908152602001600020600201819055507f3149017fecde9e80a8e9ed073a92ab7ce8e0e592eabe4fdca287356e45bbd8a68484848460405161106d9493929190612372565b60405180910390a150505050565b600360009054906101000a900473ffffffffffffffffffffffffffffffffffffffff1681565b6110a9611856565b6000600460003373ffffffffffffffffffffffffffffffffffffffff1673ffffffffffffffffffffffffffffffffffffffff168152602001908152602001600020600101541161112e576040517f08c379a000000000000000000000000000000000000000000000000000000000815260040161112590611f29565b60405180910390fd5b6815af1d78b58c400000600260009054906101000a900473ffffffffffffffffffffffffffffffffffffffff1673ffffffffffffffffffffffffffffffffffffffff166370a08231336040518263ffffffff1660e01b81526004016111939190611d43565b602060405180830381865afa1580156111b0573d6000803e3d6000fd5b505050506040513d601f19601f820116820180604052508101906111d49190611f5e565b1015611215576040517f08c379a000000000000000000000000000000000000000000000000000000000815260040161120c906122e6565b60405180910390fd5b6815af1d78b58c400000600260009054906101000a900473ffffffffffffffffffffffffffffffffffffffff1673ffffffffffffffffffffffffffffffffffffffff1663dd62ed3e33306040518363ffffffff1660e01b815260040161127c929190611ff7565b602060405180830381865afa158015611299573d6000803e3d6000fd5b505050506040513d601f19601f820116820180604052508101906112bd9190611f5e565b10156112fe576040517f08c379a00000000000000000000000000000000000000000000000000000000081526004016112f590612352565b60405180910390fd5b600260009054906101000a900473ffffffffffffffffffffffffffffffffffffffff1673ffffffffffffffffffffffffffffffffffffffff166323b872dd33306815af1d78b58c4000006040518463ffffffff1660e01b81526004016113669392919061208c565b6020604051808303816000875af1158015611385573d6000803e3d6000fd5b505050506040513d601f19601f820116820180604052508101906113a991906120fb565b506014600460003373ffffffffffffffffffffffffffffffffffffffff1673ffffffffffffffffffffffffffffffffffffffff16815260200190815260200160002060020160008282546113fd9190612157565b925050819055503373ffffffffffffffffffffffffffffffffffffffff167f9238675027fa3007a5a5ac295b8ea3359177f7801d27d871dbcfc1a2d0b70b4a601460405161144b9190612403565b60405180910390a261145b61189c565b565b6000806000806005600086600181111561147a57611479611e1e565b5b600181111561148c5761148b611e1e565b5b815260200190815260200160002060405180606001604052908160008201548152602001600182015481526020016002820154815250509050806000015181602001518260400151935093509350509193909250565b6815af1d78b58c40000081565b600080600080600460008673ffffffffffffffffffffffffffffffffffffffff1673ffffffffffffffffffffffffffffffffffffffff1681526020019081526020016000206040518060600160405290816000820160009054906101000a900460ff16600181111561156457611563611e1e565b5b600181111561157657611575611e1e565b5b8152602001600182015481526020016002820154815250509050806000015181602001518260400151935093509350509193909250565b60046020528060005260406000206000915090508060000160009054906101000a900460ff16908060010154908060020154905083565b6115ec6118a5565b600073ffffffffffffffffffffffffffffffffffffffff168173ffffffffffffffffffffffffffffffffffffffff160361165e5760006040517f1e4fbdf70000000000000000000000000000000000000000000000000000000081526004016116559190611d43565b60405180910390fd5b61166781611aa1565b50565b6116726118a5565b600260009054906101000a900473ffffffffffffffffffffffffffffffffffffffff1673ffffffffffffffffffffffffffffffffffffffff166370a08231306040518263ffffffff1660e01b81526004016116cd9190611d43565b602060405180830381865afa1580156116ea573d6000803e3d6000fd5b505050506040513d601f19601f8201168201806040525081019061170e9190611f5e565b811115611750576040517f08c379a000000000000000000000000000000000000000000000000000000000815260040161174790612251565b60405180910390fd5b600260009054906101000a900473ffffffffffffffffffffffffffffffffffffffff1673ffffffffffffffffffffffffffffffffffffffff1663a9059cbb611796610f45565b836040518363ffffffff1660e01b81526004016117b4929190612271565b6020604051808303816000875af11580156117d3573d6000803e3d6000fd5b505050506040513d601f19601f820116820180604052508101906117f791906120fb565b507f6352c5382c4a4578e712449ca65e83cdb392d045dfcf1cad9615189db2da244b600260009054906101000a900473ffffffffffffffffffffffffffffffffffffffff168260405161184b929190612271565b60405180910390a150565b600260015403611892576040517f3ee5aeb500000000000000000000000000000000000000000000000000000000815260040160405180910390fd5b6002600181905550565b60018081905550565b6118ad611b65565b73ffffffffffffffffffffffffffffffffffffffff166118cb610f45565b73ffffffffffffffffffffffffffffffffffffffff161461192a576118ee611b65565b6040517f118cdaa70000000000000000000000000000000000000000000000000000000081526004016119219190611d43565b60405180910390fd5b565b60006005600083600181111561194557611944611e1e565b5b600181111561195757611956611e1e565b5b81526020019081526020016000206040518060600160405290816000820154815260200160018201548152602001600282015481525050905060405180606001604052808360018111156119ae576119ad611e1e565b5b81526020014281526020018260000151815250600460003373ffffffffffffffffffffffffffffffffffffffff1673ffffffffffffffffffffffffffffffffffffffff16815260200190815260200160002060008201518160000160006101000a81548160ff02191690836001811115611a2b57611a2a611e1e565b5b021790555060208201518160010155604082015181600201559050503373ffffffffffffffffffffffffffffffffffffffff167f559531f26d3d225cebcd22eb4b5a893fffe267028468d998315d80fd4bdd22fb83836000015142604051611a9593929190611e95565b60405180910390a25050565b60008060009054906101000a900473ffffffffffffffffffffffffffffffffffffffff169050816000806101000a81548173ffffffffffffffffffffffffffffffffffffffff021916908373ffffffffffffffffffffffffffffffffffffffff1602179055508173ffffffffffffffffffffffffffffffffffffffff168173ffffffffffffffffffffffffffffffffffffffff167f8be0079c531659141344cd1fd0a4f28419497f9722a3daafe3b4186f6b6457e060405160405180910390a35050565b600033905090565b600080fd5b6000819050919050565b611b8581611b72565b8114611b9057600080fd5b50565b600081359050611ba281611b7c565b92915050565b600060208284031215611bbe57611bbd611b6d565b5b6000611bcc84828501611b93565b91505092915050565b611bde81611b72565b82525050565b6000602082019050611bf96000830184611bd5565b92915050565b60028110611c0c57600080fd5b50565b600081359050611c1e81611bff565b92915050565b600060208284031215611c3a57611c39611b6d565b5b6000611c4884828501611c0f565b91505092915050565b6000606082019050611c666000830186611bd5565b611c736020830185611bd5565b611c806040830184611bd5565b949350505050565b600073ffffffffffffffffffffffffffffffffffffffff82169050919050565b6000819050919050565b6000611ccd611cc8611cc384611c88565b611ca8565b611c88565b9050919050565b6000611cdf82611cb2565b9050919050565b6000611cf182611cd4565b9050919050565b611d0181611ce6565b82525050565b6000602082019050611d1c6000830184611cf8565b92915050565b6000611d2d82611c88565b9050919050565b611d3d81611d22565b82525050565b6000602082019050611d586000830184611d34565b92915050565b60008060008060808587031215611d7857611d77611b6d565b5b6000611d8687828801611c0f565b9450506020611d9787828801611b93565b9350506040611da887828801611b93565b9250506060611db987828801611b93565b91505092959194509250565b611dce81611d22565b8114611dd957600080fd5b50565b600081359050611deb81611dc5565b92915050565b600060208284031215611e0757611e06611b6d565b5b6000611e1584828501611ddc565b91505092915050565b7f4e487b7100000000000000000000000000000000000000000000000000000000600052602160045260246000fd5b60028110611e5e57611e5d611e1e565b5b50565b6000819050611e6f82611e4d565b919050565b6000611e7f82611e61565b9050919050565b611e8f81611e74565b82525050565b6000606082019050611eaa6000830186611e86565b611eb76020830185611bd5565b611ec46040830184611bd5565b949350505050565b600082825260208201905092915050565b7f4e6f2061637469766520737562736372697074696f6e00000000000000000000600082015250565b6000611f13601683611ecc565b9150611f1e82611edd565b602082019050919050565b60006020820190508181036000830152611f4281611f06565b9050919050565b600081519050611f5881611b7c565b92915050565b600060208284031215611f7457611f73611b6d565b5b6000611f8284828501611f49565b91505092915050565b7f496e73756666696369656e7420555344542062616c616e636500000000000000600082015250565b6000611fc1601983611ecc565b9150611fcc82611f8b565b602082019050919050565b60006020820190508181036000830152611ff081611fb4565b9050919050565b600060408201905061200c6000830185611d34565b6120196020830184611d34565b9392505050565b7f496e73756666696369656e74205553445420616c6c6f77616e63650000000000600082015250565b6000612056601b83611ecc565b915061206182612020565b602082019050919050565b6000602082019050818103600083015261208581612049565b9050919050565b60006060820190506120a16000830186611d34565b6120ae6020830185611d34565b6120bb6040830184611bd5565b949350505050565b60008115159050919050565b6120d8816120c3565b81146120e357600080fd5b50565b6000815190506120f5816120cf565b92915050565b60006020828403121561211157612110611b6d565b5b600061211f848285016120e6565b91505092915050565b7f4e487b7100000000000000000000000000000000000000000000000000000000600052601160045260246000fd5b600061216282611b72565b915061216d83611b72565b925082820190508082111561218557612184612128565b5b92915050565b7f5553445400000000000000000000000000000000000000000000000000000000600082015250565b60006121c1600483611ecc565b91506121cc8261218b565b602082019050919050565b60006040820190506121ec6000830184611bd5565b81810360208301526121fd816121b4565b905092915050565b7f496e73756666696369656e742062616c616e6365000000000000000000000000600082015250565b600061223b601483611ecc565b915061224682612205565b602082019050919050565b6000602082019050818103600083015261226a8161222e565b9050919050565b60006040820190506122866000830185611d34565b6122936020830184611bd5565b9392505050565b7f496e73756666696369656e7420494e5350492062616c616e6365000000000000600082015250565b60006122d0601a83611ecc565b91506122db8261229a565b602082019050919050565b600060208201905081810360008301526122ff816122c3565b9050919050565b7f496e73756666696369656e7420494e53504920616c6c6f77616e636500000000600082015250565b600061233c601c83611ecc565b915061234782612306565b602082019050919050565b6000602082019050818103600083015261236b8161232f565b9050919050565b60006080820190506123876000830187611e86565b6123946020830186611bd5565b6123a16040830185611bd5565b6123ae6060830184611bd5565b95945050505050565b7f494e535049000000000000000000000000000000000000000000000000000000600082015250565b60006123ed600583611ecc565b91506123f8826123b7565b602082019050919050565b60006040820190506124186000830184611bd5565b8181036020830152612429816123e0565b90509291505056fea2646970667358221220d65e685214cdaaac9bf451454f14826fece0fec81b774219907241099894f83f64736f6c634300081c0033",
  "linkReferences": {},
  "deployedLinkReferences": {}
}