{
  "_format": "hh-sol-artifact-1",
  "contractName": "InspiraSubscription",
  "sourceName": "contracts/InspiraSubscription.sol",
  "abi": [
    {
      "inputs": [
        {
          "internalType": "address",
          "name": "_inspiToken",
          "type": "address"
        },
        {
          "internalType": "address",
          "name": "_usdtToken",
          "type": "address"
        }
      ],
      "stateMutability": "nonpayable",
      "type": "constructor"
    },
    {
      "inputs": [
        {
          "internalType": "address",
          "name": "owner",
          "type": "address"
        }
      ],
      "name": "OwnableInvalidOwner",
      "type": "error"
    },
    {
      "inputs": [
        {
          "internalType": "address",
          "name": "account",
          "type": "address"
        }
      ],
      "name": "OwnableUnauthorizedAccount",
      "type": "error"
    },
    {
      "inputs": [],
      "name": "ReentrancyGuardReentrantCall",
      "type": "error"
    },
    {
      "anonymous": false,
      "inputs": [
        {
          "indexed": true,
          "internalType": "address",
          "name": "user",
          "type": "address"
        },
        {
          "indexed": false,
          "internalType": "uint96",
          "name": "credits",
          "type": "uint96"
        },
        {
          "indexed": false,
          "internalType": "string",
          "name": "paymentToken",
          "type": "string"
        }
      ],
      "name": "AdditionalCreditsPurchased",
      "type": "event"
    },
    {
      "anonymous": false,
      "inputs": [
        {
          "indexed": false,
          "internalType": "uint96",
          "name": "newAmount",
          "type": "uint96"
        }
      ],
      "name": "FreeCreditsUpdated",
      "type": "event"
    },
    {
      "anonymous": false,
      "inputs": [
        {
          "indexed": true,
          "internalType": "address",
          "name": "user",
          "type": "address"
        },
        {
          "indexed": false,
          "internalType": "uint96",
          "name": "credits",
          "type": "uint96"
        },
        {
          "indexed": false,
          "internalType": "uint32",
          "name": "expiresAt",
          "type": "uint32"
        }
      ],
      "name": "FreePlanClaimed",
      "type": "event"
    },
    {
      "anonymous": false,
      "inputs": [
        {
          "indexed": true,
          "internalType": "address",
          "name": "previousOwner",
          "type": "address"
        },
        {
          "indexed": true,
          "internalType": "address",
          "name": "newOwner",
          "type": "address"
        }
      ],
      "name": "OwnershipTransferred",
      "type": "event"
    },
    {
      "anonymous": false,
      "inputs": [
        {
          "indexed": false,
          "internalType": "enum InspiraSubscription.PlanType",
          "name": "planType",
          "type": "uint8"
        },
        {
          "indexed": false,
          "internalType": "uint96",
          "name": "credits",
          "type": "uint96"
        },
        {
          "indexed": false,
          "internalType": "uint80",
          "name": "inspiPrice",
          "type": "uint80"
        },
        {
          "indexed": false,
          "internalType": "uint80",
          "name": "usdtPrice",
          "type": "uint80"
        }
      ],
      "name": "PlanUpdated",
      "type": "event"
    },
    {
      "anonymous": false,
      "inputs": [
        {
          "indexed": true,
          "internalType": "address",
          "name": "user",
          "type": "address"
        },
        {
          "indexed": false,
          "internalType": "enum InspiraSubscription.PlanType",
          "name": "planType",
          "type": "uint8"
        },
        {
          "indexed": false,
          "internalType": "uint96",
          "name": "credits",
          "type": "uint96"
        },
        {
          "indexed": false,
          "internalType": "uint32",
          "name": "timestamp",
          "type": "uint32"
        }
      ],
      "name": "SubscriptionPurchased",
      "type": "event"
    },
    {
      "anonymous": false,
      "inputs": [
        {
          "indexed": true,
          "internalType": "address",
          "name": "user",
          "type": "address"
        },
        {
          "indexed": false,
          "internalType": "enum InspiraSubscription.PlanType",
          "name": "planType",
          "type": "uint8"
        }
      ],
      "name": "SubscriptionUnsubscribed",
      "type": "event"
    },
    {
      "anonymous": false,
      "inputs": [
        {
          "indexed": false,
          "internalType": "address",
          "name": "token",
          "type": "address"
        },
        {
          "indexed": false,
          "internalType": "uint256",
          "name": "amount",
          "type": "uint256"
        }
      ],
      "name": "TokensWithdrawn",
      "type": "event"
    },
    {
      "inputs": [],
      "name": "ADDITIONAL_CREDITS",
      "outputs": [
        {
          "internalType": "uint96",
          "name": "",
          "type": "uint96"
        }
      ],
      "stateMutability": "view",
      "type": "function"
    },
    {
      "inputs": [],
      "name": "ADDITIONAL_CREDITS_INSPI_PRICE",
      "outputs": [
        {
          "internalType": "uint80",
          "name": "",
          "type": "uint80"
        }
      ],
      "stateMutability": "view",
      "type": "function"
    },
    {
      "inputs": [],
      "name": "ADDITIONAL_CREDITS_USDT_PRICE",
      "outputs": [
        {
          "internalType": "uint80",
          "name": "",
          "type": "uint80"
        }
      ],
      "stateMutability": "view",
      "type": "function"
    },
    {
      "inputs": [],
      "name": "buyAdditionalCreditsWithInspi",
      "outputs": [],
      "stateMutability": "nonpayable",
      "type": "function"
    },
    {
      "inputs": [],
      "name": "buyAdditionalCreditsWithUSDT",
      "outputs": [],
      "stateMutability": "nonpayable",
      "type": "function"
    },
    {
      "inputs": [],
      "name": "claimFreePlan",
      "outputs": [],
      "stateMutability": "nonpayable",
      "type": "function"
    },
    {
      "inputs": [],
      "name": "freeCredits",
      "outputs": [
        {
          "internalType": "uint96",
          "name": "",
          "type": "uint96"
        }
      ],
      "stateMutability": "view",
      "type": "function"
    },
    {
      "inputs": [
        {
          "internalType": "enum InspiraSubscription.PlanType",
          "name": "_planType",
          "type": "uint8"
        }
      ],
      "name": "getPlanDetails",
      "outputs": [
        {
          "internalType": "uint96",
          "name": "credits",
          "type": "uint96"
        },
        {
          "internalType": "uint80",
          "name": "inspiPrice",
          "type": "uint80"
        },
        {
          "internalType": "uint80",
          "name": "usdtPrice",
          "type": "uint80"
        }
      ],
      "stateMutability": "view",
      "type": "function"
    },
    {
      "inputs": [
        {
          "internalType": "address",
          "name": "_user",
          "type": "address"
        }
      ],
      "name": "getUserSubscription",
      "outputs": [
        {
          "internalType": "enum InspiraSubscription.PlanType",
          "name": "planType",
          "type": "uint8"
        },
        {
          "internalType": "uint32",
          "name": "subscribedAt",
          "type": "uint32"
        },
        {
          "internalType": "uint32",
          "name": "expiresAt",
          "type": "uint32"
        },
        {
          "internalType": "bool",
          "name": "isActive",
          "type": "bool"
        },
        {
          "internalType": "uint96",
          "name": "credits",
          "type": "uint96"
        }
      ],
      "stateMutability": "view",
      "type": "function"
    },
    {
      "inputs": [
        {
          "internalType": "address",
          "name": "",
          "type": "address"
        }
      ],
      "name": "hasClaimedFree",
      "outputs": [
        {
          "internalType": "bool",
          "name": "",
          "type": "bool"
        }
      ],
      "stateMutability": "view",
      "type": "function"
    },
    {
      "inputs": [],
      "name": "inspiToken",
      "outputs": [
        {
          "internalType": "contract IERC20",
          "name": "",
          "type": "address"
        }
      ],
      "stateMutability": "view",
      "type": "function"
    },
    {
      "inputs": [],
      "name": "owner",
      "outputs": [
        {
          "internalType": "address",
          "name": "",
          "type": "address"
        }
      ],
      "stateMutability": "view",
      "type": "function"
    },
    {
      "inputs": [
        {
          "internalType": "enum InspiraSubscription.PlanType",
          "name": "",
          "type": "uint8"
        }
      ],
      "name": "plans",
      "outputs": [
        {
          "internalType": "uint96",
          "name": "credits",
          "type": "uint96"
        },
        {
          "internalType": "uint80",
          "name": "inspiPrice",
          "type": "uint80"
        },
        {
          "internalType": "uint80",
          "name": "usdtPrice",
          "type": "uint80"
        }
      ],
      "stateMutability": "view",
      "type": "function"
    },
    {
      "inputs": [],
      "name": "renounceOwnership",
      "outputs": [],
      "stateMutability": "nonpayable",
      "type": "function"
    },
    {
      "inputs": [
        {
          "internalType": "enum InspiraSubscription.PlanType",
          "name": "_planType",
          "type": "uint8"
        }
      ],
      "name": "subscribeWithInspi",
      "outputs": [],
      "stateMutability": "nonpayable",
      "type": "function"
    },
    {
      "inputs": [
        {
          "internalType": "enum InspiraSubscription.PlanType",
          "name": "_planType",
          "type": "uint8"
        }
      ],
      "name": "subscribeWithUSDT",
      "outputs": [],
      "stateMutability": "nonpayable",
      "type": "function"
    },
    {
      "inputs": [
        {
          "internalType": "address",
          "name": "",
          "type": "address"
        }
      ],
      "name": "subscriptions",
      "outputs": [
        {
          "internalType": "enum InspiraSubscription.PlanType",
          "name": "planType",
          "type": "uint8"
        },
        {
          "internalType": "bool",
          "name": "isActive",
          "type": "bool"
        },
        {
          "internalType": "uint96",
          "name": "credits",
          "type": "uint96"
        },
        {
          "internalType": "uint32",
          "name": "subscribedAt",
          "type": "uint32"
        },
        {
          "internalType": "uint32",
          "name": "expiresAt",
          "type": "uint32"
        }
      ],
      "stateMutability": "view",
      "type": "function"
    },
    {
      "inputs": [
        {
          "internalType": "address",
          "name": "newOwner",
          "type": "address"
        }
      ],
      "name": "transferOwnership",
      "outputs": [],
      "stateMutability": "nonpayable",
      "type": "function"
    },
    {
      "inputs": [],
      "name": "unsubscribe",
      "outputs": [],
      "stateMutability": "nonpayable",
      "type": "function"
    },
    {
      "inputs": [
        {
          "internalType": "uint96",
          "name": "_newAmount",
          "type": "uint96"
        }
      ],
      "name": "updateFreeCredits",
      "outputs": [],
      "stateMutability": "nonpayable",
      "type": "function"
    },
    {
      "inputs": [
        {
          "internalType": "enum InspiraSubscription.PlanType",
          "name": "_planType",
          "type": "uint8"
        },
        {
          "internalType": "uint96",
          "name": "_credits",
          "type": "uint96"
        },
        {
          "internalType": "uint80",
          "name": "_inspiPrice",
          "type": "uint80"
        },
        {
          "internalType": "uint80",
          "name": "_usdtPrice",
          "type": "uint80"
        }
      ],
      "name": "updatePlan",
      "outputs": [],
      "stateMutability": "nonpayable",
      "type": "function"
    },
    {
      "inputs": [],
      "name": "usdtToken",
      "outputs": [
        {
          "internalType": "contract IERC20",
          "name": "",
          "type": "address"
        }
      ],
      "stateMutability": "view",
      "type": "function"
    },
    {
      "inputs": [
        {
          "internalType": "uint256",
          "name": "_amount",
          "type": "uint256"
        }
      ],
      "name": "withdrawInspi",
      "outputs": [],
      "stateMutability": "nonpayable",
      "type": "function"
    },
    {
      "inputs": [
        {
          "internalType": "uint256",
          "name": "_amount",
          "type": "uint256"
        }
      ],
      "name": "withdrawUSDT",
      "outputs": [],
      "stateMutability": "nonpayable",
      "type": "function"
    }
  ],
  "bytecode": "0x61012060405260146bffffffffffffffffffffffff1660c0906bffffffffffffffffffffffff168152506815af1d78b58c40000069ffffffffffffffffffff1660e09069ffffffffffffffffffff16815250621e848069ffffffffffffffffffff166101009069ffffffffffffffffffff168152506032600560006101000a8154816bffffffffffffffffffffffff02191690836bffffffffffffffffffffffff1602179055503480156100b257600080fd5b506040516141c53803806141c583398181016040528101906100d49190610660565b33600073ffffffffffffffffffffffffffffffffffffffff168173ffffffffffffffffffffffffffffffffffffffff16036101475760006040517f1e4fbdf700000000000000000000000000000000000000000000000000000000815260040161013e91906106af565b60405180910390fd5b6101568161053960201b60201c565b50600180819055508173ffffffffffffffffffffffffffffffffffffffff1660808173ffffffffffffffffffffffffffffffffffffffff16815250508073ffffffffffffffffffffffffffffffffffffffff1660a08173ffffffffffffffffffffffffffffffffffffffff1681525050604051806060016040528060326bffffffffffffffffffffffff168152602001600069ffffffffffffffffffff168152602001600069ffffffffffffffffffff1681525060046000806002811115610221576102206106ca565b5b6002811115610233576102326106ca565b5b815260200190815260200160002060008201518160000160006101000a8154816bffffffffffffffffffffffff02191690836bffffffffffffffffffffffff160217905550602082015181600001600c6101000a81548169ffffffffffffffffffff021916908369ffffffffffffffffffff16021790555060408201518160000160166101000a81548169ffffffffffffffffffff021916908369ffffffffffffffffffff16021790555090505060405180606001604052806101f46bffffffffffffffffffffffff16815260200169010f0cf064dd5920000069ffffffffffffffffffff16815260200163017d784069ffffffffffffffffffff16815250600460006001600281111561034a576103496106ca565b5b600281111561035c5761035b6106ca565b5b815260200190815260200160002060008201518160000160006101000a8154816bffffffffffffffffffffffff02191690836bffffffffffffffffffffffff160217905550602082015181600001600c6101000a81548169ffffffffffffffffffff021916908369ffffffffffffffffffff16021790555060408201518160000160166101000a81548169ffffffffffffffffffff021916908369ffffffffffffffffffff16021790555090505060405180606001604052806105dc6bffffffffffffffffffffffff16815260200169028a857425466f80000069ffffffffffffffffffff168152602001630393870069ffffffffffffffffffff1681525060046000600280811115610472576104716106ca565b5b6002811115610484576104836106ca565b5b815260200190815260200160002060008201518160000160006101000a8154816bffffffffffffffffffffffff02191690836bffffffffffffffffffffffff160217905550602082015181600001600c6101000a81548169ffffffffffffffffffff021916908369ffffffffffffffffffff16021790555060408201518160000160166101000a81548169ffffffffffffffffffff021916908369ffffffffffffffffffff16021790555090505050506106f9565b60008060009054906101000a900473ffffffffffffffffffffffffffffffffffffffff169050816000806101000a81548173ffffffffffffffffffffffffffffffffffffffff021916908373ffffffffffffffffffffffffffffffffffffffff1602179055508173ffffffffffffffffffffffffffffffffffffffff168173ffffffffffffffffffffffffffffffffffffffff167f8be0079c531659141344cd1fd0a4f28419497f9722a3daafe3b4186f6b6457e060405160405180910390a35050565b600080fd5b600073ffffffffffffffffffffffffffffffffffffffff82169050919050565b600061062d82610602565b9050919050565b61063d81610622565b811461064857600080fd5b50565b60008151905061065a81610634565b92915050565b60008060408385031215610677576106766105fd565b5b60006106858582860161064b565b92505060206106968582860161064b565b9150509250929050565b6106a981610622565b82525050565b60006020820190506106c460008301846106a0565b92915050565b7f4e487b7100000000000000000000000000000000000000000000000000000000600052602160045260246000fd5b60805160a05160c05160e051610100516139c4610801600039600081816104930152818161059b015281816106e30152610a9901526000818161181c0152818161192401528181611a6c0152611d33015260008181610766015281816108550152818161178401528181611aef0152611bde0152600081816104c0015281816105c8015281816106a5015281816108bb0152818161099701528181610a5e0152818161121e0152818161130a015281816113e701526117a8015260008181610b2b01528181610d7501528181610e6101528181610f3e015281816118490152818161195101528181611a2e0152818161227901528181612355015261241c01526139c46000f3fe608060405234801561001057600080fd5b50600436106101585760003560e01c80638eb7b584116100c3578063eaffbb7e1161007c578063eaffbb7e1461036d578063ebbeec0814610377578063f046395a146103ab578063f2fde38b146103df578063f84c1c22146103fb578063fcae44841461041757610158565b80638eb7b584146102bb578063918f5b48146102d7578063a98ad46c146102f5578063bb8a05f214610313578063c95635601461031d578063de3db3f81461034f57610158565b80636627af2e116101155780636627af2e146102215780636a4df6a71461023f5780636b8d8c7a1461025b578063715018a6146102775780637f6eb875146102815780638da5cb5b1461029d57610158565b806302b8230c1461015d578063390a9fb21461018d5780633c0310a2146101975780633ea521ef146101b557806343a9ce1c146101d157806360a31a88146101ef575b600080fd5b61017760048036038101906101729190612c23565b610421565b6040516101849190612c6b565b60405180910390f35b610195610441565b005b61019f610893565b6040516101ac9190612cad565b60405180910390f35b6101cf60048036038101906101ca9190612cfe565b6108b1565b005b6101d9610a97565b6040516101e69190612d50565b60405180910390f35b61020960048036038101906102049190612d90565b610abb565b60405161021893929190612dbd565b60405180910390f35b610229610b29565b6040516102369190612e53565b60405180910390f35b61025960048036038101906102549190612d90565b610b4d565b005b61027560048036038101906102709190612d90565b610ff6565b005b61027f61149f565b005b61029b60048036038101906102969190612ec6565b6114b3565b005b6102a561167d565b6040516102b29190612f3c565b60405180910390f35b6102d560048036038101906102d09190612f57565b6116a6565b005b6102df611782565b6040516102ec9190612cad565b60405180910390f35b6102fd6117a6565b60405161030a9190612e53565b60405180910390f35b61031b6117ca565b005b61033760048036038101906103329190612d90565b611c1c565b60405161034693929190612dbd565b60405180910390f35b610357611d31565b6040516103649190612d50565b60405180910390f35b610375611d55565b005b610391600480360381019061038c9190612c23565b611fff565b6040516103a295949392919061301a565b60405180910390f35b6103c560048036038101906103c09190612c23565b612161565b6040516103d695949392919061306d565b60405180910390f35b6103f960048036038101906103f49190612c23565b6121e9565b005b61041560048036038101906104109190612cfe565b61226f565b005b61041f612455565b005b60036020528060005260406000206000915054906101000a900460ff1681565b6104496125cd565b61045233612613565b610491576040517f08c379a00000000000000000000000000000000000000000000000000000000081526004016104889061311d565b60405180910390fd5b7f000000000000000000000000000000000000000000000000000000000000000069ffffffffffffffffffff167f000000000000000000000000000000000000000000000000000000000000000073ffffffffffffffffffffffffffffffffffffffff166370a08231336040518263ffffffff1660e01b81526004016105179190612f3c565b602060405180830381865afa158015610534573d6000803e3d6000fd5b505050506040513d601f19601f820116820180604052508101906105589190613152565b1015610599576040517f08c379a0000000000000000000000000000000000000000000000000000000008152600401610590906131cb565b60405180910390fd5b7f000000000000000000000000000000000000000000000000000000000000000069ffffffffffffffffffff167f000000000000000000000000000000000000000000000000000000000000000073ffffffffffffffffffffffffffffffffffffffff1663dd62ed3e33306040518363ffffffff1660e01b81526004016106219291906131eb565b602060405180830381865afa15801561063e573d6000803e3d6000fd5b505050506040513d601f19601f820116820180604052508101906106629190613152565b10156106a3576040517f08c379a000000000000000000000000000000000000000000000000000000000815260040161069a90613260565b60405180910390fd5b7f000000000000000000000000000000000000000000000000000000000000000073ffffffffffffffffffffffffffffffffffffffff166323b872dd33307f00000000000000000000000000000000000000000000000000000000000000006040518463ffffffff1660e01b8152600401610720939291906132b1565b6020604051808303816000875af115801561073f573d6000803e3d6000fd5b505050506040513d601f19601f820116820180604052508101906107639190613314565b507f0000000000000000000000000000000000000000000000000000000000000000600260003373ffffffffffffffffffffffffffffffffffffffff1673ffffffffffffffffffffffffffffffffffffffff16815260200190815260200160002060000160028282829054906101000a90046bffffffffffffffffffffffff166107ed9190613370565b92506101000a8154816bffffffffffffffffffffffff02191690836bffffffffffffffffffffffff1602179055503373ffffffffffffffffffffffffffffffffffffffff167f9c9c4f860ef903ceec24a2fbee393b51dc803eca4897bead2369bd5202d6978d7f000000000000000000000000000000000000000000000000000000000000000060405161088191906133fc565b60405180910390a261089161276a565b565b600560009054906101000a90046bffffffffffffffffffffffff1681565b6108b9612773565b7f000000000000000000000000000000000000000000000000000000000000000073ffffffffffffffffffffffffffffffffffffffff166370a08231306040518263ffffffff1660e01b81526004016109129190612f3c565b602060405180830381865afa15801561092f573d6000803e3d6000fd5b505050506040513d601f19601f820116820180604052508101906109539190613152565b811115610995576040517f08c379a000000000000000000000000000000000000000000000000000000000815260040161098c90613476565b60405180910390fd5b7f000000000000000000000000000000000000000000000000000000000000000073ffffffffffffffffffffffffffffffffffffffff1663a9059cbb6109d961167d565b836040518363ffffffff1660e01b81526004016109f79291906134a5565b6020604051808303816000875af1158015610a16573d6000803e3d6000fd5b505050506040513d601f19601f82011682018060405250810190610a3a9190613314565b507f6352c5382c4a4578e712449ca65e83cdb392d045dfcf1cad9615189db2da244b7f000000000000000000000000000000000000000000000000000000000000000082604051610a8c9291906134a5565b60405180910390a150565b7f000000000000000000000000000000000000000000000000000000000000000081565b60046020528060005260406000206000915090508060000160009054906101000a90046bffffffffffffffffffffffff169080600001600c9054906101000a900469ffffffffffffffffffff16908060000160169054906101000a900469ffffffffffffffffffff16905083565b7f000000000000000000000000000000000000000000000000000000000000000081565b610b556125cd565b60006002811115610b6957610b68612f84565b5b816002811115610b7c57610b7b612f84565b5b03610bbc576040517f08c379a0000000000000000000000000000000000000000000000000000000008152600401610bb39061351a565b60405180910390fd5b610bc533612613565b1580610c2f5750600260003373ffffffffffffffffffffffffffffffffffffffff1673ffffffffffffffffffffffffffffffffffffffff16815260200190815260200160002060000160129054906101000a900463ffffffff1663ffffffff164263ffffffff1610155b610c6e576040517f08c379a0000000000000000000000000000000000000000000000000000000008152600401610c6590613586565b60405180910390fd5b600060046000836002811115610c8757610c86612f84565b5b6002811115610c9957610c98612f84565b5b81526020019081526020016000206040518060600160405290816000820160009054906101000a90046bffffffffffffffffffffffff166bffffffffffffffffffffffff166bffffffffffffffffffffffff16815260200160008201600c9054906101000a900469ffffffffffffffffffff1669ffffffffffffffffffff1669ffffffffffffffffffff1681526020016000820160169054906101000a900469ffffffffffffffffffff1669ffffffffffffffffffff1669ffffffffffffffffffff16815250509050806020015169ffffffffffffffffffff167f000000000000000000000000000000000000000000000000000000000000000073ffffffffffffffffffffffffffffffffffffffff166370a08231336040518263ffffffff1660e01b8152600401610dcc9190612f3c565b602060405180830381865afa158015610de9573d6000803e3d6000fd5b505050506040513d601f19601f82011682018060405250810190610e0d9190613152565b1015610e4e576040517f08c379a0000000000000000000000000000000000000000000000000000000008152600401610e45906135f2565b60405180910390fd5b806020015169ffffffffffffffffffff167f000000000000000000000000000000000000000000000000000000000000000073ffffffffffffffffffffffffffffffffffffffff1663dd62ed3e33306040518363ffffffff1660e01b8152600401610eba9291906131eb565b602060405180830381865afa158015610ed7573d6000803e3d6000fd5b505050506040513d601f19601f82011682018060405250810190610efb9190613152565b1015610f3c576040517f08c379a0000000000000000000000000000000000000000000000000000000008152600401610f339061365e565b60405180910390fd5b7f000000000000000000000000000000000000000000000000000000000000000073ffffffffffffffffffffffffffffffffffffffff166323b872dd333084602001516040518463ffffffff1660e01b8152600401610f9d939291906132b1565b6020604051808303816000875af1158015610fbc573d6000803e3d6000fd5b505050506040513d601f19601f82011682018060405250810190610fe09190613314565b50610fea826127fa565b50610ff361276a565b50565b610ffe6125cd565b6000600281111561101257611011612f84565b5b81600281111561102557611024612f84565b5b03611065576040517f08c379a000000000000000000000000000000000000000000000000000000000815260040161105c9061351a565b60405180910390fd5b61106e33612613565b15806110d85750600260003373ffffffffffffffffffffffffffffffffffffffff1673ffffffffffffffffffffffffffffffffffffffff16815260200190815260200160002060000160129054906101000a900463ffffffff1663ffffffff164263ffffffff1610155b611117576040517f08c379a000000000000000000000000000000000000000000000000000000000815260040161110e90613586565b60405180910390fd5b6000600460008360028111156111305761112f612f84565b5b600281111561114257611141612f84565b5b81526020019081526020016000206040518060600160405290816000820160009054906101000a90046bffffffffffffffffffffffff166bffffffffffffffffffffffff166bffffffffffffffffffffffff16815260200160008201600c9054906101000a900469ffffffffffffffffffff1669ffffffffffffffffffff1669ffffffffffffffffffff1681526020016000820160169054906101000a900469ffffffffffffffffffff1669ffffffffffffffffffff1669ffffffffffffffffffff16815250509050806040015169ffffffffffffffffffff167f000000000000000000000000000000000000000000000000000000000000000073ffffffffffffffffffffffffffffffffffffffff166370a08231336040518263ffffffff1660e01b81526004016112759190612f3c565b602060405180830381865afa158015611292573d6000803e3d6000fd5b505050506040513d601f19601f820116820180604052508101906112b69190613152565b10156112f7576040517f08c379a00000000000000000000000000000000000000000000000000000000081526004016112ee906131cb565b60405180910390fd5b806040015169ffffffffffffffffffff167f000000000000000000000000000000000000000000000000000000000000000073ffffffffffffffffffffffffffffffffffffffff1663dd62ed3e33306040518363ffffffff1660e01b81526004016113639291906131eb565b602060405180830381865afa158015611380573d6000803e3d6000fd5b505050506040513d601f19601f820116820180604052508101906113a49190613152565b10156113e5576040517f08c379a00000000000000000000000000000000000000000000000000000000081526004016113dc90613260565b60405180910390fd5b7f000000000000000000000000000000000000000000000000000000000000000073ffffffffffffffffffffffffffffffffffffffff166323b872dd333084604001516040518463ffffffff1660e01b8152600401611446939291906132b1565b6020604051808303816000875af1158015611465573d6000803e3d6000fd5b505050506040513d601f19601f820116820180604052508101906114899190613314565b50611493826127fa565b5061149c61276a565b50565b6114a7612773565b6114b16000612af4565b565b6114bb612773565b600060028111156114cf576114ce612f84565b5b8460028111156114e2576114e1612f84565b5b03611522576040517f08c379a0000000000000000000000000000000000000000000000000000000008152600401611519906136ca565b60405180910390fd5b6040518060600160405280846bffffffffffffffffffffffff1681526020018369ffffffffffffffffffff1681526020018269ffffffffffffffffffff168152506004600086600281111561157a57611579612f84565b5b600281111561158c5761158b612f84565b5b815260200190815260200160002060008201518160000160006101000a8154816bffffffffffffffffffffffff02191690836bffffffffffffffffffffffff160217905550602082015181600001600c6101000a81548169ffffffffffffffffffff021916908369ffffffffffffffffffff16021790555060408201518160000160166101000a81548169ffffffffffffffffffff021916908369ffffffffffffffffffff1602179055509050507f039b3d98329779222be2db6c1faac2c920be23f9b688c7cfb93c4d9510247e248484848460405161166f94939291906136ea565b60405180910390a150505050565b60008060009054906101000a900473ffffffffffffffffffffffffffffffffffffffff16905090565b6116ae612773565b80600560006101000a8154816bffffffffffffffffffffffff02191690836bffffffffffffffffffffffff16021790555080600460008060028111156116f7576116f6612f84565b5b600281111561170957611708612f84565b5b815260200190815260200160002060000160006101000a8154816bffffffffffffffffffffffff02191690836bffffffffffffffffffffffff1602179055507fbdb9e5f8a14f95afa65f88c8516431169924da40a635dbd7478dbd92d718d81c816040516117779190612cad565b60405180910390a150565b7f000000000000000000000000000000000000000000000000000000000000000081565b7f000000000000000000000000000000000000000000000000000000000000000081565b6117d26125cd565b6117db33612613565b61181a576040517f08c379a00000000000000000000000000000000000000000000000000000000081526004016118119061311d565b60405180910390fd5b7f000000000000000000000000000000000000000000000000000000000000000069ffffffffffffffffffff167f000000000000000000000000000000000000000000000000000000000000000073ffffffffffffffffffffffffffffffffffffffff166370a08231336040518263ffffffff1660e01b81526004016118a09190612f3c565b602060405180830381865afa1580156118bd573d6000803e3d6000fd5b505050506040513d601f19601f820116820180604052508101906118e19190613152565b1015611922576040517f08c379a0000000000000000000000000000000000000000000000000000000008152600401611919906135f2565b60405180910390fd5b7f000000000000000000000000000000000000000000000000000000000000000069ffffffffffffffffffff167f000000000000000000000000000000000000000000000000000000000000000073ffffffffffffffffffffffffffffffffffffffff1663dd62ed3e33306040518363ffffffff1660e01b81526004016119aa9291906131eb565b602060405180830381865afa1580156119c7573d6000803e3d6000fd5b505050506040513d601f19601f820116820180604052508101906119eb9190613152565b1015611a2c576040517f08c379a0000000000000000000000000000000000000000000000000000000008152600401611a239061365e565b60405180910390fd5b7f000000000000000000000000000000000000000000000000000000000000000073ffffffffffffffffffffffffffffffffffffffff166323b872dd33307f00000000000000000000000000000000000000000000000000000000000000006040518463ffffffff1660e01b8152600401611aa9939291906132b1565b6020604051808303816000875af1158015611ac8573d6000803e3d6000fd5b505050506040513d601f19601f82011682018060405250810190611aec9190613314565b507f0000000000000000000000000000000000000000000000000000000000000000600260003373ffffffffffffffffffffffffffffffffffffffff1673ffffffffffffffffffffffffffffffffffffffff16815260200190815260200160002060000160028282829054906101000a90046bffffffffffffffffffffffff16611b769190613370565b92506101000a8154816bffffffffffffffffffffffff02191690836bffffffffffffffffffffffff1602179055503373ffffffffffffffffffffffffffffffffffffffff167f9c9c4f860ef903ceec24a2fbee393b51dc803eca4897bead2369bd5202d6978d7f0000000000000000000000000000000000000000000000000000000000000000604051611c0a919061377b565b60405180910390a2611c1a61276a565b565b60008060008060046000866002811115611c3957611c38612f84565b5b6002811115611c4b57611c4a612f84565b5b81526020019081526020016000206040518060600160405290816000820160009054906101000a90046bffffffffffffffffffffffff166bffffffffffffffffffffffff166bffffffffffffffffffffffff16815260200160008201600c9054906101000a900469ffffffffffffffffffff1669ffffffffffffffffffff1669ffffffffffffffffffff1681526020016000820160169054906101000a900469ffffffffffffffffffff1669ffffffffffffffffffff1669ffffffffffffffffffff16815250509050806000015181602001518260400151935093509350509193909250565b7f000000000000000000000000000000000000000000000000000000000000000081565b611d5d6125cd565b611d6633612613565b15611da6576040517f08c379a0000000000000000000000000000000000000000000000000000000008152600401611d9d90613586565b60405180910390fd5b600360003373ffffffffffffffffffffffffffffffffffffffff1673ffffffffffffffffffffffffffffffffffffffff16815260200190815260200160002060009054906101000a900460ff161580611edc575060006002811115611e0e57611e0d612f84565b5b600260003373ffffffffffffffffffffffffffffffffffffffff1673ffffffffffffffffffffffffffffffffffffffff16815260200190815260200160002060000160009054906101000a900460ff166002811115611e7057611e6f612f84565b5b148015611edb5750600260003373ffffffffffffffffffffffffffffffffffffffff1673ffffffffffffffffffffffffffffffffffffffff16815260200190815260200160002060000160129054906101000a900463ffffffff1663ffffffff164263ffffffff1610155b5b611f1b576040517f08c379a0000000000000000000000000000000000000000000000000000000008152600401611f12906137f5565b60405180910390fd5b611f2560006127fa565b6001600360003373ffffffffffffffffffffffffffffffffffffffff1673ffffffffffffffffffffffffffffffffffffffff16815260200190815260200160002060006101000a81548160ff0219169083151502179055503373ffffffffffffffffffffffffffffffffffffffff167fb013cd0baf677200fc5a31d09a25e9363664e7e11f901fb54fb078249b35108d600560009054906101000a90046bffffffffffffffffffffffff1662278d0042611fdf9190613815565b604051611fed929190613849565b60405180910390a2611ffd61276a565b565b600080600080600080600260008873ffffffffffffffffffffffffffffffffffffffff1673ffffffffffffffffffffffffffffffffffffffff1681526020019081526020016000206040518060a00160405290816000820160009054906101000a900460ff16600281111561207757612076612f84565b5b600281111561208957612088612f84565b5b81526020016000820160019054906101000a900460ff161515151581526020016000820160029054906101000a90046bffffffffffffffffffffffff166bffffffffffffffffffffffff166bffffffffffffffffffffffff16815260200160008201600e9054906101000a900463ffffffff1663ffffffff1663ffffffff1681526020016000820160129054906101000a900463ffffffff1663ffffffff1663ffffffff1681525050905080600001518160600151826080015183602001518460400151955095509550955095505091939590929450565b60026020528060005260406000206000915090508060000160009054906101000a900460ff16908060000160019054906101000a900460ff16908060000160029054906101000a90046bffffffffffffffffffffffff169080600001600e9054906101000a900463ffffffff16908060000160129054906101000a900463ffffffff16905085565b6121f1612773565b600073ffffffffffffffffffffffffffffffffffffffff168173ffffffffffffffffffffffffffffffffffffffff16036122635760006040517f1e4fbdf700000000000000000000000000000000000000000000000000000000815260040161225a9190612f3c565b60405180910390fd5b61226c81612af4565b50565b612277612773565b7f000000000000000000000000000000000000000000000000000000000000000073ffffffffffffffffffffffffffffffffffffffff166370a08231306040518263ffffffff1660e01b81526004016122d09190612f3c565b602060405180830381865afa1580156122ed573d6000803e3d6000fd5b505050506040513d601f19601f820116820180604052508101906123119190613152565b811115612353576040517f08c379a000000000000000000000000000000000000000000000000000000000815260040161234a90613476565b60405180910390fd5b7f000000000000000000000000000000000000000000000000000000000000000073ffffffffffffffffffffffffffffffffffffffff1663a9059cbb61239761167d565b836040518363ffffffff1660e01b81526004016123b59291906134a5565b6020604051808303816000875af11580156123d4573d6000803e3d6000fd5b505050506040513d601f19601f820116820180604052508101906123f89190613314565b507f6352c5382c4a4578e712449ca65e83cdb392d045dfcf1cad9615189db2da244b7f00000000000000000000000000000000000000000000000000000000000000008260405161244a9291906134a5565b60405180910390a150565b6000600260003373ffffffffffffffffffffffffffffffffffffffff1673ffffffffffffffffffffffffffffffffffffffff16815260200190815260200160002090508060000160019054906101000a900460ff166124e9576040517f08c379a00000000000000000000000000000000000000000000000000000000081526004016124e09061311d565b60405180910390fd5b600060028111156124fd576124fc612f84565b5b8160000160009054906101000a900460ff16600281111561252157612520612f84565b5b03612561576040517f08c379a0000000000000000000000000000000000000000000000000000000008152600401612558906138e4565b60405180910390fd5b3373ffffffffffffffffffffffffffffffffffffffff167f7461e10d55034bbf42557e5c2673bfb05d25ec674b0d905f9524ec78987299bf8260000160009054906101000a900460ff166040516125b89190613904565b60405180910390a26125ca60006127fa565b50565b600260015403612609576040517f3ee5aeb500000000000000000000000000000000000000000000000000000000815260040160405180910390fd5b6002600181905550565b600080600260008473ffffffffffffffffffffffffffffffffffffffff1673ffffffffffffffffffffffffffffffffffffffff1681526020019081526020016000206040518060a00160405290816000820160009054906101000a900460ff16600281111561268557612684612f84565b5b600281111561269757612696612f84565b5b81526020016000820160019054906101000a900460ff161515151581526020016000820160029054906101000a90046bffffffffffffffffffffffff166bffffffffffffffffffffffff166bffffffffffffffffffffffff16815260200160008201600e9054906101000a900463ffffffff1663ffffffff1663ffffffff1681526020016000820160129054906101000a900463ffffffff1663ffffffff1663ffffffff16815250509050806020015180156127625750806080015163ffffffff164263ffffffff16105b915050919050565b60018081905550565b61277b612bb8565b73ffffffffffffffffffffffffffffffffffffffff1661279961167d565b73ffffffffffffffffffffffffffffffffffffffff16146127f8576127bc612bb8565b6040517f118cdaa70000000000000000000000000000000000000000000000000000000081526004016127ef9190612f3c565b60405180910390fd5b565b60006004600083600281111561281357612812612f84565b5b600281111561282557612824612f84565b5b81526020019081526020016000206040518060600160405290816000820160009054906101000a90046bffffffffffffffffffffffff166bffffffffffffffffffffffff166bffffffffffffffffffffffff16815260200160008201600c9054906101000a900469ffffffffffffffffffff1669ffffffffffffffffffff1669ffffffffffffffffffff1681526020016000820160169054906101000a900469ffffffffffffffffffff1669ffffffffffffffffffff1669ffffffffffffffffffff1681525050905060004290506040518060a0016040528084600281111561291157612910612f84565b5b81526020016000600281111561292a57612929612f84565b5b85600281111561293d5761293c612f84565b5b14151515815260200183600001516bffffffffffffffffffffffff1681526020018263ffffffff16815260200162278d0083612979919061391f565b63ffffffff16815250600260003373ffffffffffffffffffffffffffffffffffffffff1673ffffffffffffffffffffffffffffffffffffffff16815260200190815260200160002060008201518160000160006101000a81548160ff021916908360028111156129ec576129eb612f84565b5b021790555060208201518160000160016101000a81548160ff02191690831515021790555060408201518160000160026101000a8154816bffffffffffffffffffffffff02191690836bffffffffffffffffffffffff160217905550606082015181600001600e6101000a81548163ffffffff021916908363ffffffff16021790555060808201518160000160126101000a81548163ffffffff021916908363ffffffff1602179055509050503373ffffffffffffffffffffffffffffffffffffffff167f3f330374f7fc86c5692f4b44a6059eca56c84272e74a23237b839e469ea5142a84846000015184604051612ae793929190613957565b60405180910390a2505050565b60008060009054906101000a900473ffffffffffffffffffffffffffffffffffffffff169050816000806101000a81548173ffffffffffffffffffffffffffffffffffffffff021916908373ffffffffffffffffffffffffffffffffffffffff1602179055508173ffffffffffffffffffffffffffffffffffffffff168173ffffffffffffffffffffffffffffffffffffffff167f8be0079c531659141344cd1fd0a4f28419497f9722a3daafe3b4186f6b6457e060405160405180910390a35050565b600033905090565b600080fd5b600073ffffffffffffffffffffffffffffffffffffffff82169050919050565b6000612bf082612bc5565b9050919050565b612c0081612be5565b8114612c0b57600080fd5b50565b600081359050612c1d81612bf7565b92915050565b600060208284031215612c3957612c38612bc0565b5b6000612c4784828501612c0e565b91505092915050565b60008115159050919050565b612c6581612c50565b82525050565b6000602082019050612c806000830184612c5c565b92915050565b60006bffffffffffffffffffffffff82169050919050565b612ca781612c86565b82525050565b6000602082019050612cc26000830184612c9e565b92915050565b6000819050919050565b612cdb81612cc8565b8114612ce657600080fd5b50565b600081359050612cf881612cd2565b92915050565b600060208284031215612d1457612d13612bc0565b5b6000612d2284828501612ce9565b91505092915050565b600069ffffffffffffffffffff82169050919050565b612d4a81612d2b565b82525050565b6000602082019050612d656000830184612d41565b92915050565b60038110612d7857600080fd5b50565b600081359050612d8a81612d6b565b92915050565b600060208284031215612da657612da5612bc0565b5b6000612db484828501612d7b565b91505092915050565b6000606082019050612dd26000830186612c9e565b612ddf6020830185612d41565b612dec6040830184612d41565b949350505050565b6000819050919050565b6000612e19612e14612e0f84612bc5565b612df4565b612bc5565b9050919050565b6000612e2b82612dfe565b9050919050565b6000612e3d82612e20565b9050919050565b612e4d81612e32565b82525050565b6000602082019050612e686000830184612e44565b92915050565b612e7781612c86565b8114612e8257600080fd5b50565b600081359050612e9481612e6e565b92915050565b612ea381612d2b565b8114612eae57600080fd5b50565b600081359050612ec081612e9a565b92915050565b60008060008060808587031215612ee057612edf612bc0565b5b6000612eee87828801612d7b565b9450506020612eff87828801612e85565b9350506040612f1087828801612eb1565b9250506060612f2187828801612eb1565b91505092959194509250565b612f3681612be5565b82525050565b6000602082019050612f516000830184612f2d565b92915050565b600060208284031215612f6d57612f6c612bc0565b5b6000612f7b84828501612e85565b91505092915050565b7f4e487b7100000000000000000000000000000000000000000000000000000000600052602160045260246000fd5b60038110612fc457612fc3612f84565b5b50565b6000819050612fd582612fb3565b919050565b6000612fe582612fc7565b9050919050565b612ff581612fda565b82525050565b600063ffffffff82169050919050565b61301481612ffb565b82525050565b600060a08201905061302f6000830188612fec565b61303c602083018761300b565b613049604083018661300b565b6130566060830185612c5c565b6130636080830184612c9e565b9695505050505050565b600060a0820190506130826000830188612fec565b61308f6020830187612c5c565b61309c6040830186612c9e565b6130a9606083018561300b565b6130b6608083018461300b565b9695505050505050565b600082825260208201905092915050565b7f4e6f2061637469766520737562736372697074696f6e00000000000000000000600082015250565b60006131076016836130c0565b9150613112826130d1565b602082019050919050565b60006020820190508181036000830152613136816130fa565b9050919050565b60008151905061314c81612cd2565b92915050565b60006020828403121561316857613167612bc0565b5b60006131768482850161313d565b91505092915050565b7f496e73756666696369656e7420555344542062616c616e636500000000000000600082015250565b60006131b56019836130c0565b91506131c08261317f565b602082019050919050565b600060208201905081810360008301526131e4816131a8565b9050919050565b60006040820190506132006000830185612f2d565b61320d6020830184612f2d565b9392505050565b7f496e73756666696369656e74205553445420616c6c6f77616e63650000000000600082015250565b600061324a601b836130c0565b915061325582613214565b602082019050919050565b600060208201905081810360008301526132798161323d565b9050919050565b600061329b61329661329184612d2b565b612df4565b612cc8565b9050919050565b6132ab81613280565b82525050565b60006060820190506132c66000830186612f2d565b6132d36020830185612f2d565b6132e060408301846132a2565b949350505050565b6132f181612c50565b81146132fc57600080fd5b50565b60008151905061330e816132e8565b92915050565b60006020828403121561332a57613329612bc0565b5b6000613338848285016132ff565b91505092915050565b7f4e487b7100000000000000000000000000000000000000000000000000000000600052601160045260246000fd5b600061337b82612c86565b915061338683612c86565b925082820190506bffffffffffffffffffffffff8111156133aa576133a9613341565b5b92915050565b7f5553445400000000000000000000000000000000000000000000000000000000600082015250565b60006133e66004836130c0565b91506133f1826133b0565b602082019050919050565b60006040820190506134116000830184612c9e565b8181036020830152613422816133d9565b905092915050565b7f496e73756666696369656e742062616c616e6365000000000000000000000000600082015250565b60006134606014836130c0565b915061346b8261342a565b602082019050919050565b6000602082019050818103600083015261348f81613453565b9050919050565b61349f81612cc8565b82525050565b60006040820190506134ba6000830185612f2d565b6134c76020830184613496565b9392505050565b7f43616e6e6f742073756273637269626520746f206672656520706c616e000000600082015250565b6000613504601d836130c0565b915061350f826134ce565b602082019050919050565b60006020820190508181036000830152613533816134f7565b9050919050565b7f41637469766520737562736372697074696f6e20657869737473000000000000600082015250565b6000613570601a836130c0565b915061357b8261353a565b602082019050919050565b6000602082019050818103600083015261359f81613563565b9050919050565b7f496e73756666696369656e7420494e5350492062616c616e6365000000000000600082015250565b60006135dc601a836130c0565b91506135e7826135a6565b602082019050919050565b6000602082019050818103600083015261360b816135cf565b9050919050565b7f496e73756666696369656e7420494e53504920616c6c6f77616e636500000000600082015250565b6000613648601c836130c0565b915061365382613612565b602082019050919050565b600060208201905081810360008301526136778161363b565b9050919050565b7f43616e6e6f7420757064617465206672656520706c616e206865726500000000600082015250565b60006136b4601c836130c0565b91506136bf8261367e565b602082019050919050565b600060208201905081810360008301526136e3816136a7565b9050919050565b60006080820190506136ff6000830187612fec565b61370c6020830186612c9e565b6137196040830185612d41565b6137266060830184612d41565b95945050505050565b7f494e535049000000000000000000000000000000000000000000000000000000600082015250565b60006137656005836130c0565b91506137708261372f565b602082019050919050565b60006040820190506137906000830184612c9e565b81810360208301526137a181613758565b905092915050565b7f4e6f7420656c696769626c6520666f72206672656520706c616e000000000000600082015250565b60006137df601a836130c0565b91506137ea826137a9565b602082019050919050565b6000602082019050818103600083015261380e816137d2565b9050919050565b600061382082612cc8565b915061382b83612cc8565b925082820190508082111561384357613842613341565b5b92915050565b600060408201905061385e6000830185612c9e565b61386b602083018461300b565b9392505050565b7f43616e6e6f7420756e7375627363726962652066726f6d206672656520706c6160008201527f6e00000000000000000000000000000000000000000000000000000000000000602082015250565b60006138ce6021836130c0565b91506138d982613872565b604082019050919050565b600060208201905081810360008301526138fd816138c1565b9050919050565b60006020820190506139196000830184612fec565b92915050565b600061392a82612ffb565b915061393583612ffb565b9250828201905063ffffffff81111561395157613950613341565b5b92915050565b600060608201905061396c6000830186612fec565b6139796020830185612c9e565b613986604083018461300b565b94935050505056fea26469706673582212203d3b9a590bf299dade28c824bb8d66e7b99946f2fb58b10045c371be0e1d16c264736f6c634300081c0033",
  "linkReferences": {},
  "deployedLinkReferences": {}
}