{
  "_format": "hh-sol-artifact-1",
  "contractName": "InspiraSubscription",
  "sourceName": "contracts/InspiraSubscription.sol",
  "abi": [
    {
      "inputs": [
        {
          "internalType": "address",
          "name": "_inspiToken",
          "type": "address"
        },
        {
          "internalType": "address",
          "name": "_usdtToken",
          "type": "address"
        }
      ],
      "stateMutability": "nonpayable",
      "type": "constructor"
    },
    {
      "inputs": [
        {
          "internalType": "address",
          "name": "owner",
          "type": "address"
        }
      ],
      "name": "OwnableInvalidOwner",
      "type": "error"
    },
    {
      "inputs": [
        {
          "internalType": "address",
          "name": "account",
          "type": "address"
        }
      ],
      "name": "OwnableUnauthorizedAccount",
      "type": "error"
    },
    {
      "inputs": [],
      "name": "ReentrancyGuardReentrantCall",
      "type": "error"
    },
    {
      "anonymous": false,
      "inputs": [
        {
          "indexed": false,
          "internalType": "uint96",
          "name": "credits",
          "type": "uint96"
        },
        {
          "indexed": false,
          "internalType": "uint80",
          "name": "inspiPrice",
          "type": "uint80"
        },
        {
          "indexed": false,
          "internalType": "uint80",
          "name": "usdtPrice",
          "type": "uint80"
        }
      ],
      "name": "AdditionalCreditsDetailsUpdated",
      "type": "event"
    },
    {
      "anonymous": false,
      "inputs": [
        {
          "indexed": true,
          "internalType": "address",
          "name": "user",
          "type": "address"
        },
        {
          "indexed": false,
          "internalType": "uint96",
          "name": "credits",
          "type": "uint96"
        },
        {
          "indexed": false,
          "internalType": "string",
          "name": "paymentToken",
          "type": "string"
        }
      ],
      "name": "AdditionalCreditsPurchased",
      "type": "event"
    },
    {
      "anonymous": false,
      "inputs": [
        {
          "indexed": false,
          "internalType": "uint96",
          "name": "newAmount",
          "type": "uint96"
        }
      ],
      "name": "FreeCreditsUpdated",
      "type": "event"
    },
    {
      "anonymous": false,
      "inputs": [
        {
          "indexed": true,
          "internalType": "address",
          "name": "user",
          "type": "address"
        },
        {
          "indexed": false,
          "internalType": "uint96",
          "name": "credits",
          "type": "uint96"
        },
        {
          "indexed": false,
          "internalType": "uint32",
          "name": "expiresAt",
          "type": "uint32"
        }
      ],
      "name": "FreePlanClaimed",
      "type": "event"
    },
    {
      "anonymous": false,
      "inputs": [
        {
          "indexed": true,
          "internalType": "address",
          "name": "previousOwner",
          "type": "address"
        },
        {
          "indexed": true,
          "internalType": "address",
          "name": "newOwner",
          "type": "address"
        }
      ],
      "name": "OwnershipTransferred",
      "type": "event"
    },
    {
      "anonymous": false,
      "inputs": [
        {
          "indexed": true,
          "internalType": "address",
          "name": "user",
          "type": "address"
        },
        {
          "indexed": false,
          "internalType": "enum InspiraSubscription.PlanType",
          "name": "planType",
          "type": "uint8"
        },
        {
          "indexed": false,
          "internalType": "uint96",
          "name": "credits",
          "type": "uint96"
        },
        {
          "indexed": false,
          "internalType": "uint32",
          "name": "expiresAt",
          "type": "uint32"
        }
      ],
      "name": "PlanChangedByOwner",
      "type": "event"
    },
    {
      "anonymous": false,
      "inputs": [
        {
          "indexed": false,
          "internalType": "enum InspiraSubscription.PlanType",
          "name": "planType",
          "type": "uint8"
        },
        {
          "indexed": false,
          "internalType": "uint96",
          "name": "credits",
          "type": "uint96"
        },
        {
          "indexed": false,
          "internalType": "uint80",
          "name": "inspiPrice",
          "type": "uint80"
        },
        {
          "indexed": false,
          "internalType": "uint80",
          "name": "usdtPrice",
          "type": "uint80"
        }
      ],
      "name": "PlanUpdated",
      "type": "event"
    },
    {
      "anonymous": false,
      "inputs": [
        {
          "indexed": true,
          "internalType": "address",
          "name": "user",
          "type": "address"
        },
        {
          "indexed": false,
          "internalType": "enum InspiraSubscription.PlanType",
          "name": "planType",
          "type": "uint8"
        },
        {
          "indexed": false,
          "internalType": "uint96",
          "name": "credits",
          "type": "uint96"
        },
        {
          "indexed": false,
          "internalType": "uint32",
          "name": "timestamp",
          "type": "uint32"
        }
      ],
      "name": "SubscriptionPurchased",
      "type": "event"
    },
    {
      "anonymous": false,
      "inputs": [
        {
          "indexed": true,
          "internalType": "address",
          "name": "user",
          "type": "address"
        },
        {
          "indexed": false,
          "internalType": "enum InspiraSubscription.PlanType",
          "name": "planType",
          "type": "uint8"
        }
      ],
      "name": "SubscriptionUnsubscribed",
      "type": "event"
    },
    {
      "anonymous": false,
      "inputs": [
        {
          "indexed": false,
          "internalType": "address",
          "name": "token",
          "type": "address"
        },
        {
          "indexed": false,
          "internalType": "uint256",
          "name": "amount",
          "type": "uint256"
        }
      ],
      "name": "TokensWithdrawn",
      "type": "event"
    },
    {
      "inputs": [],
      "name": "ADDITIONAL_CREDITS",
      "outputs": [
        {
          "internalType": "uint96",
          "name": "",
          "type": "uint96"
        }
      ],
      "stateMutability": "view",
      "type": "function"
    },
    {
      "inputs": [],
      "name": "ADDITIONAL_CREDITS_INSPI_PRICE",
      "outputs": [
        {
          "internalType": "uint80",
          "name": "",
          "type": "uint80"
        }
      ],
      "stateMutability": "view",
      "type": "function"
    },
    {
      "inputs": [],
      "name": "ADDITIONAL_CREDITS_USDT_PRICE",
      "outputs": [
        {
          "internalType": "uint80",
          "name": "",
          "type": "uint80"
        }
      ],
      "stateMutability": "view",
      "type": "function"
    },
    {
      "inputs": [],
      "name": "buyAdditionalCreditsWithInspi",
      "outputs": [],
      "stateMutability": "nonpayable",
      "type": "function"
    },
    {
      "inputs": [],
      "name": "buyAdditionalCreditsWithUSDT",
      "outputs": [],
      "stateMutability": "nonpayable",
      "type": "function"
    },
    {
      "inputs": [
        {
          "internalType": "address",
          "name": "_user",
          "type": "address"
        },
        {
          "internalType": "enum InspiraSubscription.PlanType",
          "name": "_planType",
          "type": "uint8"
        }
      ],
      "name": "changePlanByOwner",
      "outputs": [],
      "stateMutability": "nonpayable",
      "type": "function"
    },
    {
      "inputs": [],
      "name": "claimFreePlan",
      "outputs": [],
      "stateMutability": "nonpayable",
      "type": "function"
    },
    {
      "inputs": [],
      "name": "freeCredits",
      "outputs": [
        {
          "internalType": "uint96",
          "name": "",
          "type": "uint96"
        }
      ],
      "stateMutability": "view",
      "type": "function"
    },
    {
      "inputs": [
        {
          "internalType": "enum InspiraSubscription.PlanType",
          "name": "_planType",
          "type": "uint8"
        }
      ],
      "name": "getPlanDetails",
      "outputs": [
        {
          "internalType": "uint96",
          "name": "credits",
          "type": "uint96"
        },
        {
          "internalType": "uint80",
          "name": "inspiPrice",
          "type": "uint80"
        },
        {
          "internalType": "uint80",
          "name": "usdtPrice",
          "type": "uint80"
        }
      ],
      "stateMutability": "view",
      "type": "function"
    },
    {
      "inputs": [
        {
          "internalType": "address",
          "name": "_user",
          "type": "address"
        }
      ],
      "name": "getUserSubscription",
      "outputs": [
        {
          "internalType": "enum InspiraSubscription.PlanType",
          "name": "planType",
          "type": "uint8"
        },
        {
          "internalType": "uint32",
          "name": "subscribedAt",
          "type": "uint32"
        },
        {
          "internalType": "uint32",
          "name": "expiresAt",
          "type": "uint32"
        },
        {
          "internalType": "bool",
          "name": "isActive",
          "type": "bool"
        },
        {
          "internalType": "uint96",
          "name": "credits",
          "type": "uint96"
        }
      ],
      "stateMutability": "view",
      "type": "function"
    },
    {
      "inputs": [
        {
          "internalType": "address",
          "name": "",
          "type": "address"
        }
      ],
      "name": "hasClaimedFree",
      "outputs": [
        {
          "internalType": "bool",
          "name": "",
          "type": "bool"
        }
      ],
      "stateMutability": "view",
      "type": "function"
    },
    {
      "inputs": [],
      "name": "inspiToken",
      "outputs": [
        {
          "internalType": "contract IERC20",
          "name": "",
          "type": "address"
        }
      ],
      "stateMutability": "view",
      "type": "function"
    },
    {
      "inputs": [],
      "name": "owner",
      "outputs": [
        {
          "internalType": "address",
          "name": "",
          "type": "address"
        }
      ],
      "stateMutability": "view",
      "type": "function"
    },
    {
      "inputs": [
        {
          "internalType": "enum InspiraSubscription.PlanType",
          "name": "",
          "type": "uint8"
        }
      ],
      "name": "plans",
      "outputs": [
        {
          "internalType": "uint96",
          "name": "credits",
          "type": "uint96"
        },
        {
          "internalType": "uint80",
          "name": "inspiPrice",
          "type": "uint80"
        },
        {
          "internalType": "uint80",
          "name": "usdtPrice",
          "type": "uint80"
        }
      ],
      "stateMutability": "view",
      "type": "function"
    },
    {
      "inputs": [],
      "name": "renounceOwnership",
      "outputs": [],
      "stateMutability": "nonpayable",
      "type": "function"
    },
    {
      "inputs": [
        {
          "internalType": "enum InspiraSubscription.PlanType",
          "name": "_planType",
          "type": "uint8"
        }
      ],
      "name": "subscribeWithInspi",
      "outputs": [],
      "stateMutability": "nonpayable",
      "type": "function"
    },
    {
      "inputs": [
        {
          "internalType": "enum InspiraSubscription.PlanType",
          "name": "_planType",
          "type": "uint8"
        }
      ],
      "name": "subscribeWithUSDT",
      "outputs": [],
      "stateMutability": "nonpayable",
      "type": "function"
    },
    {
      "inputs": [
        {
          "internalType": "address",
          "name": "",
          "type": "address"
        }
      ],
      "name": "subscriptions",
      "outputs": [
        {
          "internalType": "enum InspiraSubscription.PlanType",
          "name": "planType",
          "type": "uint8"
        },
        {
          "internalType": "bool",
          "name": "isActive",
          "type": "bool"
        },
        {
          "internalType": "uint96",
          "name": "credits",
          "type": "uint96"
        },
        {
          "internalType": "uint32",
          "name": "subscribedAt",
          "type": "uint32"
        },
        {
          "internalType": "uint32",
          "name": "expiresAt",
          "type": "uint32"
        }
      ],
      "stateMutability": "view",
      "type": "function"
    },
    {
      "inputs": [
        {
          "internalType": "address",
          "name": "newOwner",
          "type": "address"
        }
      ],
      "name": "transferOwnership",
      "outputs": [],
      "stateMutability": "nonpayable",
      "type": "function"
    },
    {
      "inputs": [],
      "name": "unsubscribe",
      "outputs": [],
      "stateMutability": "nonpayable",
      "type": "function"
    },
    {
      "inputs": [
        {
          "internalType": "uint96",
          "name": "_credits",
          "type": "uint96"
        },
        {
          "internalType": "uint80",
          "name": "_inspiPrice",
          "type": "uint80"
        },
        {
          "internalType": "uint80",
          "name": "_usdtPrice",
          "type": "uint80"
        }
      ],
      "name": "updateAdditionalCreditsDetails",
      "outputs": [],
      "stateMutability": "nonpayable",
      "type": "function"
    },
    {
      "inputs": [
        {
          "internalType": "uint96",
          "name": "_newAmount",
          "type": "uint96"
        }
      ],
      "name": "updateFreeCredits",
      "outputs": [],
      "stateMutability": "nonpayable",
      "type": "function"
    },
    {
      "inputs": [
        {
          "internalType": "enum InspiraSubscription.PlanType",
          "name": "_planType",
          "type": "uint8"
        },
        {
          "internalType": "uint96",
          "name": "_credits",
          "type": "uint96"
        },
        {
          "internalType": "uint80",
          "name": "_inspiPrice",
          "type": "uint80"
        },
        {
          "internalType": "uint80",
          "name": "_usdtPrice",
          "type": "uint80"
        }
      ],
      "name": "updatePlan",
      "outputs": [],
      "stateMutability": "nonpayable",
      "type": "function"
    },
    {
      "inputs": [],
      "name": "usdtToken",
      "outputs": [
        {
          "internalType": "contract IERC20",
          "name": "",
          "type": "address"
        }
      ],
      "stateMutability": "view",
      "type": "function"
    },
    {
      "inputs": [
        {
          "internalType": "uint256",
          "name": "_amount",
          "type": "uint256"
        }
      ],
      "name": "withdrawInspi",
      "outputs": [],
      "stateMutability": "nonpayable",
      "type": "function"
    },
    {
      "inputs": [
        {
          "internalType": "uint256",
          "name": "_amount",
          "type": "uint256"
        }
      ],
      "name": "withdrawUSDT",
      "outputs": [],
      "stateMutability": "nonpayable",
      "type": "function"
    }
  ],
  "bytecode": "0x60c06040526014600560006101000a8154816bffffffffffffffffffffffff02191690836bffffffffffffffffffffffff1602179055506815af1d78b58c4000006005600c6101000a81548169ffffffffffffffffffff021916908369ffffffffffffffffffff160217905550621e8480600560166101000a81548169ffffffffffffffffffff021916908369ffffffffffffffffffff1602179055506032600660006101000a8154816bffffffffffffffffffffffff02191690836bffffffffffffffffffffffff1602179055503480156100da57600080fd5b506040516148d93803806148d983398181016040528101906100fc9190610688565b33600073ffffffffffffffffffffffffffffffffffffffff168173ffffffffffffffffffffffffffffffffffffffff160361016f5760006040517f1e4fbdf700000000000000000000000000000000000000000000000000000000815260040161016691906106d7565b60405180910390fd5b61017e8161056160201b60201c565b50600180819055508173ffffffffffffffffffffffffffffffffffffffff1660808173ffffffffffffffffffffffffffffffffffffffff16815250508073ffffffffffffffffffffffffffffffffffffffff1660a08173ffffffffffffffffffffffffffffffffffffffff1681525050604051806060016040528060326bffffffffffffffffffffffff168152602001600069ffffffffffffffffffff168152602001600069ffffffffffffffffffff1681525060046000806002811115610249576102486106f2565b5b600281111561025b5761025a6106f2565b5b815260200190815260200160002060008201518160000160006101000a8154816bffffffffffffffffffffffff02191690836bffffffffffffffffffffffff160217905550602082015181600001600c6101000a81548169ffffffffffffffffffff021916908369ffffffffffffffffffff16021790555060408201518160000160166101000a81548169ffffffffffffffffffff021916908369ffffffffffffffffffff16021790555090505060405180606001604052806101f46bffffffffffffffffffffffff16815260200169010f0cf064dd5920000069ffffffffffffffffffff16815260200163017d784069ffffffffffffffffffff168152506004600060016002811115610372576103716106f2565b5b6002811115610384576103836106f2565b5b815260200190815260200160002060008201518160000160006101000a8154816bffffffffffffffffffffffff02191690836bffffffffffffffffffffffff160217905550602082015181600001600c6101000a81548169ffffffffffffffffffff021916908369ffffffffffffffffffff16021790555060408201518160000160166101000a81548169ffffffffffffffffffff021916908369ffffffffffffffffffff16021790555090505060405180606001604052806105dc6bffffffffffffffffffffffff16815260200169028a857425466f80000069ffffffffffffffffffff168152602001630393870069ffffffffffffffffffff168152506004600060028081111561049a576104996106f2565b5b60028111156104ac576104ab6106f2565b5b815260200190815260200160002060008201518160000160006101000a8154816bffffffffffffffffffffffff02191690836bffffffffffffffffffffffff160217905550602082015181600001600c6101000a81548169ffffffffffffffffffff021916908369ffffffffffffffffffff16021790555060408201518160000160166101000a81548169ffffffffffffffffffff021916908369ffffffffffffffffffff1602179055509050505050610721565b60008060009054906101000a900473ffffffffffffffffffffffffffffffffffffffff169050816000806101000a81548173ffffffffffffffffffffffffffffffffffffffff021916908373ffffffffffffffffffffffffffffffffffffffff1602179055508173ffffffffffffffffffffffffffffffffffffffff168173ffffffffffffffffffffffffffffffffffffffff167f8be0079c531659141344cd1fd0a4f28419497f9722a3daafe3b4186f6b6457e060405160405180910390a35050565b600080fd5b600073ffffffffffffffffffffffffffffffffffffffff82169050919050565b60006106558261062a565b9050919050565b6106658161064a565b811461067057600080fd5b50565b6000815190506106828161065c565b92915050565b6000806040838503121561069f5761069e610625565b5b60006106ad85828601610673565b92505060206106be85828601610673565b9150509250929050565b6106d18161064a565b82525050565b60006020820190506106ec60008301846106c8565b92915050565b7f4e487b7100000000000000000000000000000000000000000000000000000000600052602160045260246000fd5b60805160a0516141156107c4600039600081816106a0015281816107a00152818161087d01528181610a7f01528181610b5b01528181610c22015281816113da015281816114c6015281816115a30152611cde015260008181610ce701528181610f310152818161101d015281816110fa01528181611d2f01528181611e2f01528181611f0c0152818161273b0152818161281701526128de01526141156000f3fe608060405234801561001057600080fd5b506004361061018e5760003560e01c80638eb7b584116100de578063de3db3f811610097578063f046395a11610071578063f046395a14610419578063f2fde38b1461044d578063f84c1c2214610469578063fcae4484146104855761018e565b8063de3db3f8146103bd578063eaffbb7e146103db578063ebbeec08146103e55761018e565b80638eb7b5841461030d578063918f5b4814610329578063a8c227a414610347578063a98ad46c14610363578063bb8a05f214610381578063c95635601461038b5761018e565b806360a31a881161014b5780636b8d8c7a116101255780636b8d8c7a146102ad578063715018a6146102c95780637f6eb875146102d35780638da5cb5b146102ef5761018e565b806360a31a88146102415780636627af2e146102735780636a4df6a7146102915761018e565b806302b8230c146101935780631da179ed146101c3578063390a9fb2146101df5780633c0310a2146101e95780633ea521ef1461020757806343a9ce1c14610223575b600080fd5b6101ad60048036038101906101a891906130e5565b61048f565b6040516101ba919061312d565b60405180910390f35b6101dd60048036038101906101d891906131ce565b6104af565b005b6101e7610671565b005b6101f1610a57565b6040516101fe9190613230565b60405180910390f35b610221600480360381019061021c9190613281565b610a75565b005b61022b610c5b565b60405161023891906132bd565b60405180910390f35b61025b600480360381019061025691906132fd565b610c77565b60405161026a9392919061332a565b60405180910390f35b61027b610ce5565b60405161028891906133c0565b60405180910390f35b6102ab60048036038101906102a691906132fd565b610d09565b005b6102c760048036038101906102c291906132fd565b6111b2565b005b6102d161165b565b005b6102ed60048036038101906102e891906133db565b61166f565b005b6102f7611839565b6040516103049190613451565b60405180910390f35b6103276004803603810190610322919061346c565b611862565b005b61033161193e565b60405161033e9190613230565b60405180910390f35b610361600480360381019061035c9190613499565b61195c565b005b61036b611cdc565b60405161037891906133c0565b60405180910390f35b610389611d00565b005b6103a560048036038101906103a091906132fd565b6120e6565b6040516103b49392919061332a565b60405180910390f35b6103c56121fb565b6040516103d291906132bd565b60405180910390f35b6103e3612217565b005b6103ff60048036038101906103fa91906130e5565b6124c1565b60405161041095949392919061356f565b60405180910390f35b610433600480360381019061042e91906130e5565b612623565b6040516104449594939291906135c2565b60405180910390f35b610467600480360381019061046291906130e5565b6126ab565b005b610483600480360381019061047e9190613281565b612731565b005b61048d612917565b005b60036020528060005260406000206000915054906101000a900460ff1681565b6104b7612a8f565b6000836bffffffffffffffffffffffff1611610508576040517f08c379a00000000000000000000000000000000000000000000000000000000081526004016104ff90613672565b60405180910390fd5b60008269ffffffffffffffffffff1611610557576040517f08c379a000000000000000000000000000000000000000000000000000000000815260040161054e90613704565b60405180910390fd5b60008169ffffffffffffffffffff16116105a6576040517f08c379a000000000000000000000000000000000000000000000000000000000815260040161059d90613796565b60405180910390fd5b82600560006101000a8154816bffffffffffffffffffffffff02191690836bffffffffffffffffffffffff160217905550816005600c6101000a81548169ffffffffffffffffffff021916908369ffffffffffffffffffff16021790555080600560166101000a81548169ffffffffffffffffffff021916908369ffffffffffffffffffff1602179055507f8acc6565313d74351b6f8b78c030de47749e57f08c5b73f213e3a41b0bdb1e638383836040516106649392919061332a565b60405180910390a1505050565b610679612b16565b600560169054906101000a900469ffffffffffffffffffff1669ffffffffffffffffffff167f000000000000000000000000000000000000000000000000000000000000000073ffffffffffffffffffffffffffffffffffffffff166370a08231336040518263ffffffff1660e01b81526004016106f79190613451565b602060405180830381865afa158015610714573d6000803e3d6000fd5b505050506040513d601f19601f8201168201806040525081019061073891906137cb565b1015610779576040517f08c379a000000000000000000000000000000000000000000000000000000000815260040161077090613844565b60405180910390fd5b600560169054906101000a900469ffffffffffffffffffff1669ffffffffffffffffffff167f000000000000000000000000000000000000000000000000000000000000000073ffffffffffffffffffffffffffffffffffffffff1663dd62ed3e33306040518363ffffffff1660e01b81526004016107f9929190613864565b602060405180830381865afa158015610816573d6000803e3d6000fd5b505050506040513d601f19601f8201168201806040525081019061083a91906137cb565b101561087b576040517f08c379a0000000000000000000000000000000000000000000000000000000008152600401610872906138d9565b60405180910390fd5b7f000000000000000000000000000000000000000000000000000000000000000073ffffffffffffffffffffffffffffffffffffffff166323b872dd3330600560169054906101000a900469ffffffffffffffffffff166040518463ffffffff1660e01b81526004016108f09392919061392a565b6020604051808303816000875af115801561090f573d6000803e3d6000fd5b505050506040513d601f19601f82011682018060405250810190610933919061398d565b50600560009054906101000a90046bffffffffffffffffffffffff16600260003373ffffffffffffffffffffffffffffffffffffffff1673ffffffffffffffffffffffffffffffffffffffff16815260200190815260200160002060000160028282829054906101000a90046bffffffffffffffffffffffff166109b791906139e9565b92506101000a8154816bffffffffffffffffffffffff02191690836bffffffffffffffffffffffff1602179055503373ffffffffffffffffffffffffffffffffffffffff167f9c9c4f860ef903ceec24a2fbee393b51dc803eca4897bead2369bd5202d6978d600560009054906101000a90046bffffffffffffffffffffffff16604051610a459190613a75565b60405180910390a2610a55612b5c565b565b600660009054906101000a90046bffffffffffffffffffffffff1681565b610a7d612a8f565b7f000000000000000000000000000000000000000000000000000000000000000073ffffffffffffffffffffffffffffffffffffffff166370a08231306040518263ffffffff1660e01b8152600401610ad69190613451565b602060405180830381865afa158015610af3573d6000803e3d6000fd5b505050506040513d601f19601f82011682018060405250810190610b1791906137cb565b811115610b59576040517f08c379a0000000000000000000000000000000000000000000000000000000008152600401610b5090613aef565b60405180910390fd5b7f000000000000000000000000000000000000000000000000000000000000000073ffffffffffffffffffffffffffffffffffffffff1663a9059cbb610b9d611839565b836040518363ffffffff1660e01b8152600401610bbb929190613b1e565b6020604051808303816000875af1158015610bda573d6000803e3d6000fd5b505050506040513d601f19601f82011682018060405250810190610bfe919061398d565b507f6352c5382c4a4578e712449ca65e83cdb392d045dfcf1cad9615189db2da244b7f000000000000000000000000000000000000000000000000000000000000000082604051610c50929190613b1e565b60405180910390a150565b600560169054906101000a900469ffffffffffffffffffff1681565b60046020528060005260406000206000915090508060000160009054906101000a90046bffffffffffffffffffffffff169080600001600c9054906101000a900469ffffffffffffffffffff16908060000160169054906101000a900469ffffffffffffffffffff16905083565b7f000000000000000000000000000000000000000000000000000000000000000081565b610d11612b16565b60006002811115610d2557610d246134d9565b5b816002811115610d3857610d376134d9565b5b03610d78576040517f08c379a0000000000000000000000000000000000000000000000000000000008152600401610d6f90613b93565b60405180910390fd5b610d8133612b65565b1580610deb5750600260003373ffffffffffffffffffffffffffffffffffffffff1673ffffffffffffffffffffffffffffffffffffffff16815260200190815260200160002060000160129054906101000a900463ffffffff1663ffffffff164263ffffffff1610155b610e2a576040517f08c379a0000000000000000000000000000000000000000000000000000000008152600401610e2190613bff565b60405180910390fd5b600060046000836002811115610e4357610e426134d9565b5b6002811115610e5557610e546134d9565b5b81526020019081526020016000206040518060600160405290816000820160009054906101000a90046bffffffffffffffffffffffff166bffffffffffffffffffffffff166bffffffffffffffffffffffff16815260200160008201600c9054906101000a900469ffffffffffffffffffff1669ffffffffffffffffffff1669ffffffffffffffffffff1681526020016000820160169054906101000a900469ffffffffffffffffffff1669ffffffffffffffffffff1669ffffffffffffffffffff16815250509050806020015169ffffffffffffffffffff167f000000000000000000000000000000000000000000000000000000000000000073ffffffffffffffffffffffffffffffffffffffff166370a08231336040518263ffffffff1660e01b8152600401610f889190613451565b602060405180830381865afa158015610fa5573d6000803e3d6000fd5b505050506040513d601f19601f82011682018060405250810190610fc991906137cb565b101561100a576040517f08c379a000000000000000000000000000000000000000000000000000000000815260040161100190613c6b565b60405180910390fd5b806020015169ffffffffffffffffffff167f000000000000000000000000000000000000000000000000000000000000000073ffffffffffffffffffffffffffffffffffffffff1663dd62ed3e33306040518363ffffffff1660e01b8152600401611076929190613864565b602060405180830381865afa158015611093573d6000803e3d6000fd5b505050506040513d601f19601f820116820180604052508101906110b791906137cb565b10156110f8576040517f08c379a00000000000000000000000000000000000000000000000000000000081526004016110ef90613cd7565b60405180910390fd5b7f000000000000000000000000000000000000000000000000000000000000000073ffffffffffffffffffffffffffffffffffffffff166323b872dd333084602001516040518463ffffffff1660e01b81526004016111599392919061392a565b6020604051808303816000875af1158015611178573d6000803e3d6000fd5b505050506040513d601f19601f8201168201806040525081019061119c919061398d565b506111a682612cbc565b506111af612b5c565b50565b6111ba612b16565b600060028111156111ce576111cd6134d9565b5b8160028111156111e1576111e06134d9565b5b03611221576040517f08c379a000000000000000000000000000000000000000000000000000000000815260040161121890613b93565b60405180910390fd5b61122a33612b65565b15806112945750600260003373ffffffffffffffffffffffffffffffffffffffff1673ffffffffffffffffffffffffffffffffffffffff16815260200190815260200160002060000160129054906101000a900463ffffffff1663ffffffff164263ffffffff1610155b6112d3576040517f08c379a00000000000000000000000000000000000000000000000000000000081526004016112ca90613bff565b60405180910390fd5b6000600460008360028111156112ec576112eb6134d9565b5b60028111156112fe576112fd6134d9565b5b81526020019081526020016000206040518060600160405290816000820160009054906101000a90046bffffffffffffffffffffffff166bffffffffffffffffffffffff166bffffffffffffffffffffffff16815260200160008201600c9054906101000a900469ffffffffffffffffffff1669ffffffffffffffffffff1669ffffffffffffffffffff1681526020016000820160169054906101000a900469ffffffffffffffffffff1669ffffffffffffffffffff1669ffffffffffffffffffff16815250509050806040015169ffffffffffffffffffff167f000000000000000000000000000000000000000000000000000000000000000073ffffffffffffffffffffffffffffffffffffffff166370a08231336040518263ffffffff1660e01b81526004016114319190613451565b602060405180830381865afa15801561144e573d6000803e3d6000fd5b505050506040513d601f19601f8201168201806040525081019061147291906137cb565b10156114b3576040517f08c379a00000000000000000000000000000000000000000000000000000000081526004016114aa90613844565b60405180910390fd5b806040015169ffffffffffffffffffff167f000000000000000000000000000000000000000000000000000000000000000073ffffffffffffffffffffffffffffffffffffffff1663dd62ed3e33306040518363ffffffff1660e01b815260040161151f929190613864565b602060405180830381865afa15801561153c573d6000803e3d6000fd5b505050506040513d601f19601f8201168201806040525081019061156091906137cb565b10156115a1576040517f08c379a0000000000000000000000000000000000000000000000000000000008152600401611598906138d9565b60405180910390fd5b7f000000000000000000000000000000000000000000000000000000000000000073ffffffffffffffffffffffffffffffffffffffff166323b872dd333084604001516040518463ffffffff1660e01b81526004016116029392919061392a565b6020604051808303816000875af1158015611621573d6000803e3d6000fd5b505050506040513d601f19601f82011682018060405250810190611645919061398d565b5061164f82612cbc565b50611658612b5c565b50565b611663612a8f565b61166d6000612fb6565b565b611677612a8f565b6000600281111561168b5761168a6134d9565b5b84600281111561169e5761169d6134d9565b5b036116de576040517f08c379a00000000000000000000000000000000000000000000000000000000081526004016116d590613d43565b60405180910390fd5b6040518060600160405280846bffffffffffffffffffffffff1681526020018369ffffffffffffffffffff1681526020018269ffffffffffffffffffff1681525060046000866002811115611736576117356134d9565b5b6002811115611748576117476134d9565b5b815260200190815260200160002060008201518160000160006101000a8154816bffffffffffffffffffffffff02191690836bffffffffffffffffffffffff160217905550602082015181600001600c6101000a81548169ffffffffffffffffffff021916908369ffffffffffffffffffff16021790555060408201518160000160166101000a81548169ffffffffffffffffffff021916908369ffffffffffffffffffff1602179055509050507f039b3d98329779222be2db6c1faac2c920be23f9b688c7cfb93c4d9510247e248484848460405161182b9493929190613d63565b60405180910390a150505050565b60008060009054906101000a900473ffffffffffffffffffffffffffffffffffffffff16905090565b61186a612a8f565b80600660006101000a8154816bffffffffffffffffffffffff02191690836bffffffffffffffffffffffff16021790555080600460008060028111156118b3576118b26134d9565b5b60028111156118c5576118c46134d9565b5b815260200190815260200160002060000160006101000a8154816bffffffffffffffffffffffff02191690836bffffffffffffffffffffffff1602179055507fbdb9e5f8a14f95afa65f88c8516431169924da40a635dbd7478dbd92d718d81c816040516119339190613230565b60405180910390a150565b600560009054906101000a90046bffffffffffffffffffffffff1681565b611964612a8f565b600073ffffffffffffffffffffffffffffffffffffffff168273ffffffffffffffffffffffffffffffffffffffff16036119d3576040517f08c379a00000000000000000000000000000000000000000000000000000000081526004016119ca90613df4565b60405180910390fd5b6000600460008360028111156119ec576119eb6134d9565b5b60028111156119fe576119fd6134d9565b5b81526020019081526020016000206040518060600160405290816000820160009054906101000a90046bffffffffffffffffffffffff166bffffffffffffffffffffffff166bffffffffffffffffffffffff16815260200160008201600c9054906101000a900469ffffffffffffffffffff1669ffffffffffffffffffff1669ffffffffffffffffffff1681526020016000820160169054906101000a900469ffffffffffffffffffff1669ffffffffffffffffffff1669ffffffffffffffffffff1681525050905060004290506040518060a00160405280846002811115611aea57611ae96134d9565b5b815260200160006002811115611b0357611b026134d9565b5b856002811115611b1657611b156134d9565b5b14151515815260200183600001516bffffffffffffffffffffffff1681526020018263ffffffff16815260200162278d0083611b529190613e14565b63ffffffff16815250600260008673ffffffffffffffffffffffffffffffffffffffff1673ffffffffffffffffffffffffffffffffffffffff16815260200190815260200160002060008201518160000160006101000a81548160ff02191690836002811115611bc557611bc46134d9565b5b021790555060208201518160000160016101000a81548160ff02191690831515021790555060408201518160000160026101000a8154816bffffffffffffffffffffffff02191690836bffffffffffffffffffffffff160217905550606082015181600001600e6101000a81548163ffffffff021916908363ffffffff16021790555060808201518160000160126101000a81548163ffffffff021916908363ffffffff1602179055509050508373ffffffffffffffffffffffffffffffffffffffff167fb8a5a3903396ba74b01037b42cf347f99463c27e93dcb2b77ceb0b178e1d00bd84846000015162278d0085611cbf9190613e14565b604051611cce93929190613e4c565b60405180910390a250505050565b7f000000000000000000000000000000000000000000000000000000000000000081565b611d08612b16565b6005600c9054906101000a900469ffffffffffffffffffff1669ffffffffffffffffffff167f000000000000000000000000000000000000000000000000000000000000000073ffffffffffffffffffffffffffffffffffffffff166370a08231336040518263ffffffff1660e01b8152600401611d869190613451565b602060405180830381865afa158015611da3573d6000803e3d6000fd5b505050506040513d601f19601f82011682018060405250810190611dc791906137cb565b1015611e08576040517f08c379a0000000000000000000000000000000000000000000000000000000008152600401611dff90613c6b565b60405180910390fd5b6005600c9054906101000a900469ffffffffffffffffffff1669ffffffffffffffffffff167f000000000000000000000000000000000000000000000000000000000000000073ffffffffffffffffffffffffffffffffffffffff1663dd62ed3e33306040518363ffffffff1660e01b8152600401611e88929190613864565b602060405180830381865afa158015611ea5573d6000803e3d6000fd5b505050506040513d601f19601f82011682018060405250810190611ec991906137cb565b1015611f0a576040517f08c379a0000000000000000000000000000000000000000000000000000000008152600401611f0190613cd7565b60405180910390fd5b7f000000000000000000000000000000000000000000000000000000000000000073ffffffffffffffffffffffffffffffffffffffff166323b872dd33306005600c9054906101000a900469ffffffffffffffffffff166040518463ffffffff1660e01b8152600401611f7f9392919061392a565b6020604051808303816000875af1158015611f9e573d6000803e3d6000fd5b505050506040513d601f19601f82011682018060405250810190611fc2919061398d565b50600560009054906101000a90046bffffffffffffffffffffffff16600260003373ffffffffffffffffffffffffffffffffffffffff1673ffffffffffffffffffffffffffffffffffffffff16815260200190815260200160002060000160028282829054906101000a90046bffffffffffffffffffffffff1661204691906139e9565b92506101000a8154816bffffffffffffffffffffffff02191690836bffffffffffffffffffffffff1602179055503373ffffffffffffffffffffffffffffffffffffffff167f9c9c4f860ef903ceec24a2fbee393b51dc803eca4897bead2369bd5202d6978d600560009054906101000a90046bffffffffffffffffffffffff166040516120d49190613ecf565b60405180910390a26120e4612b5c565b565b60008060008060046000866002811115612103576121026134d9565b5b6002811115612115576121146134d9565b5b81526020019081526020016000206040518060600160405290816000820160009054906101000a90046bffffffffffffffffffffffff166bffffffffffffffffffffffff166bffffffffffffffffffffffff16815260200160008201600c9054906101000a900469ffffffffffffffffffff1669ffffffffffffffffffff1669ffffffffffffffffffff1681526020016000820160169054906101000a900469ffffffffffffffffffff1669ffffffffffffffffffff1669ffffffffffffffffffff16815250509050806000015181602001518260400151935093509350509193909250565b6005600c9054906101000a900469ffffffffffffffffffff1681565b61221f612b16565b61222833612b65565b15612268576040517f08c379a000000000000000000000000000000000000000000000000000000000815260040161225f90613bff565b60405180910390fd5b600360003373ffffffffffffffffffffffffffffffffffffffff1673ffffffffffffffffffffffffffffffffffffffff16815260200190815260200160002060009054906101000a900460ff16158061239e5750600060028111156122d0576122cf6134d9565b5b600260003373ffffffffffffffffffffffffffffffffffffffff1673ffffffffffffffffffffffffffffffffffffffff16815260200190815260200160002060000160009054906101000a900460ff166002811115612332576123316134d9565b5b14801561239d5750600260003373ffffffffffffffffffffffffffffffffffffffff1673ffffffffffffffffffffffffffffffffffffffff16815260200190815260200160002060000160129054906101000a900463ffffffff1663ffffffff164263ffffffff1610155b5b6123dd576040517f08c379a00000000000000000000000000000000000000000000000000000000081526004016123d490613f49565b60405180910390fd5b6123e76000612cbc565b6001600360003373ffffffffffffffffffffffffffffffffffffffff1673ffffffffffffffffffffffffffffffffffffffff16815260200190815260200160002060006101000a81548160ff0219169083151502179055503373ffffffffffffffffffffffffffffffffffffffff167fb013cd0baf677200fc5a31d09a25e9363664e7e11f901fb54fb078249b35108d600660009054906101000a90046bffffffffffffffffffffffff1662278d00426124a19190613f69565b6040516124af929190613f9d565b60405180910390a26124bf612b5c565b565b600080600080600080600260008873ffffffffffffffffffffffffffffffffffffffff1673ffffffffffffffffffffffffffffffffffffffff1681526020019081526020016000206040518060a00160405290816000820160009054906101000a900460ff166002811115612539576125386134d9565b5b600281111561254b5761254a6134d9565b5b81526020016000820160019054906101000a900460ff161515151581526020016000820160029054906101000a90046bffffffffffffffffffffffff166bffffffffffffffffffffffff166bffffffffffffffffffffffff16815260200160008201600e9054906101000a900463ffffffff1663ffffffff1663ffffffff1681526020016000820160129054906101000a900463ffffffff1663ffffffff1663ffffffff1681525050905080600001518160600151826080015183602001518460400151955095509550955095505091939590929450565b60026020528060005260406000206000915090508060000160009054906101000a900460ff16908060000160019054906101000a900460ff16908060000160029054906101000a90046bffffffffffffffffffffffff169080600001600e9054906101000a900463ffffffff16908060000160129054906101000a900463ffffffff16905085565b6126b3612a8f565b600073ffffffffffffffffffffffffffffffffffffffff168173ffffffffffffffffffffffffffffffffffffffff16036127255760006040517f1e4fbdf700000000000000000000000000000000000000000000000000000000815260040161271c9190613451565b60405180910390fd5b61272e81612fb6565b50565b612739612a8f565b7f000000000000000000000000000000000000000000000000000000000000000073ffffffffffffffffffffffffffffffffffffffff166370a08231306040518263ffffffff1660e01b81526004016127929190613451565b602060405180830381865afa1580156127af573d6000803e3d6000fd5b505050506040513d601f19601f820116820180604052508101906127d391906137cb565b811115612815576040517f08c379a000000000000000000000000000000000000000000000000000000000815260040161280c90613aef565b60405180910390fd5b7f000000000000000000000000000000000000000000000000000000000000000073ffffffffffffffffffffffffffffffffffffffff1663a9059cbb612859611839565b836040518363ffffffff1660e01b8152600401612877929190613b1e565b6020604051808303816000875af1158015612896573d6000803e3d6000fd5b505050506040513d601f19601f820116820180604052508101906128ba919061398d565b507f6352c5382c4a4578e712449ca65e83cdb392d045dfcf1cad9615189db2da244b7f00000000000000000000000000000000000000000000000000000000000000008260405161290c929190613b1e565b60405180910390a150565b6000600260003373ffffffffffffffffffffffffffffffffffffffff1673ffffffffffffffffffffffffffffffffffffffff16815260200190815260200160002090508060000160019054906101000a900460ff166129ab576040517f08c379a00000000000000000000000000000000000000000000000000000000081526004016129a290614012565b60405180910390fd5b600060028111156129bf576129be6134d9565b5b8160000160009054906101000a900460ff1660028111156129e3576129e26134d9565b5b03612a23576040517f08c379a0000000000000000000000000000000000000000000000000000000008152600401612a1a906140a4565b60405180910390fd5b3373ffffffffffffffffffffffffffffffffffffffff167f7461e10d55034bbf42557e5c2673bfb05d25ec674b0d905f9524ec78987299bf8260000160009054906101000a900460ff16604051612a7a91906140c4565b60405180910390a2612a8c6000612cbc565b50565b612a9761307a565b73ffffffffffffffffffffffffffffffffffffffff16612ab5611839565b73ffffffffffffffffffffffffffffffffffffffff1614612b1457612ad861307a565b6040517f118cdaa7000000000000000000000000000000000000000000000000000000008152600401612b0b9190613451565b60405180910390fd5b565b600260015403612b52576040517f3ee5aeb500000000000000000000000000000000000000000000000000000000815260040160405180910390fd5b6002600181905550565b60018081905550565b600080600260008473ffffffffffffffffffffffffffffffffffffffff1673ffffffffffffffffffffffffffffffffffffffff1681526020019081526020016000206040518060a00160405290816000820160009054906101000a900460ff166002811115612bd757612bd66134d9565b5b6002811115612be957612be86134d9565b5b81526020016000820160019054906101000a900460ff161515151581526020016000820160029054906101000a90046bffffffffffffffffffffffff166bffffffffffffffffffffffff166bffffffffffffffffffffffff16815260200160008201600e9054906101000a900463ffffffff1663ffffffff1663ffffffff1681526020016000820160129054906101000a900463ffffffff1663ffffffff1663ffffffff1681525050905080602001518015612cb45750806080015163ffffffff164263ffffffff16105b915050919050565b600060046000836002811115612cd557612cd46134d9565b5b6002811115612ce757612ce66134d9565b5b81526020019081526020016000206040518060600160405290816000820160009054906101000a90046bffffffffffffffffffffffff166bffffffffffffffffffffffff166bffffffffffffffffffffffff16815260200160008201600c9054906101000a900469ffffffffffffffffffff1669ffffffffffffffffffff1669ffffffffffffffffffff1681526020016000820160169054906101000a900469ffffffffffffffffffff1669ffffffffffffffffffff1669ffffffffffffffffffff1681525050905060004290506040518060a00160405280846002811115612dd357612dd26134d9565b5b815260200160006002811115612dec57612deb6134d9565b5b856002811115612dff57612dfe6134d9565b5b14151515815260200183600001516bffffffffffffffffffffffff1681526020018263ffffffff16815260200162278d0083612e3b9190613e14565b63ffffffff16815250600260003373ffffffffffffffffffffffffffffffffffffffff1673ffffffffffffffffffffffffffffffffffffffff16815260200190815260200160002060008201518160000160006101000a81548160ff02191690836002811115612eae57612ead6134d9565b5b021790555060208201518160000160016101000a81548160ff02191690831515021790555060408201518160000160026101000a8154816bffffffffffffffffffffffff02191690836bffffffffffffffffffffffff160217905550606082015181600001600e6101000a81548163ffffffff021916908363ffffffff16021790555060808201518160000160126101000a81548163ffffffff021916908363ffffffff1602179055509050503373ffffffffffffffffffffffffffffffffffffffff167f3f330374f7fc86c5692f4b44a6059eca56c84272e74a23237b839e469ea5142a84846000015184604051612fa993929190613e4c565b60405180910390a2505050565b60008060009054906101000a900473ffffffffffffffffffffffffffffffffffffffff169050816000806101000a81548173ffffffffffffffffffffffffffffffffffffffff021916908373ffffffffffffffffffffffffffffffffffffffff1602179055508173ffffffffffffffffffffffffffffffffffffffff168173ffffffffffffffffffffffffffffffffffffffff167f8be0079c531659141344cd1fd0a4f28419497f9722a3daafe3b4186f6b6457e060405160405180910390a35050565b600033905090565b600080fd5b600073ffffffffffffffffffffffffffffffffffffffff82169050919050565b60006130b282613087565b9050919050565b6130c2816130a7565b81146130cd57600080fd5b50565b6000813590506130df816130b9565b92915050565b6000602082840312156130fb576130fa613082565b5b6000613109848285016130d0565b91505092915050565b60008115159050919050565b61312781613112565b82525050565b6000602082019050613142600083018461311e565b92915050565b60006bffffffffffffffffffffffff82169050919050565b61316981613148565b811461317457600080fd5b50565b60008135905061318681613160565b92915050565b600069ffffffffffffffffffff82169050919050565b6131ab8161318c565b81146131b657600080fd5b50565b6000813590506131c8816131a2565b92915050565b6000806000606084860312156131e7576131e6613082565b5b60006131f586828701613177565b9350506020613206868287016131b9565b9250506040613217868287016131b9565b9150509250925092565b61322a81613148565b82525050565b60006020820190506132456000830184613221565b92915050565b6000819050919050565b61325e8161324b565b811461326957600080fd5b50565b60008135905061327b81613255565b92915050565b60006020828403121561329757613296613082565b5b60006132a58482850161326c565b91505092915050565b6132b78161318c565b82525050565b60006020820190506132d260008301846132ae565b92915050565b600381106132e557600080fd5b50565b6000813590506132f7816132d8565b92915050565b60006020828403121561331357613312613082565b5b6000613321848285016132e8565b91505092915050565b600060608201905061333f6000830186613221565b61334c60208301856132ae565b61335960408301846132ae565b949350505050565b6000819050919050565b600061338661338161337c84613087565b613361565b613087565b9050919050565b60006133988261336b565b9050919050565b60006133aa8261338d565b9050919050565b6133ba8161339f565b82525050565b60006020820190506133d560008301846133b1565b92915050565b600080600080608085870312156133f5576133f4613082565b5b6000613403878288016132e8565b945050602061341487828801613177565b9350506040613425878288016131b9565b9250506060613436878288016131b9565b91505092959194509250565b61344b816130a7565b82525050565b60006020820190506134666000830184613442565b92915050565b60006020828403121561348257613481613082565b5b600061349084828501613177565b91505092915050565b600080604083850312156134b0576134af613082565b5b60006134be858286016130d0565b92505060206134cf858286016132e8565b9150509250929050565b7f4e487b7100000000000000000000000000000000000000000000000000000000600052602160045260246000fd5b60038110613519576135186134d9565b5b50565b600081905061352a82613508565b919050565b600061353a8261351c565b9050919050565b61354a8161352f565b82525050565b600063ffffffff82169050919050565b61356981613550565b82525050565b600060a0820190506135846000830188613541565b6135916020830187613560565b61359e6040830186613560565b6135ab606083018561311e565b6135b86080830184613221565b9695505050505050565b600060a0820190506135d76000830188613541565b6135e4602083018761311e565b6135f16040830186613221565b6135fe6060830185613560565b61360b6080830184613560565b9695505050505050565b600082825260208201905092915050565b7f43726564697473206d7573742062652067726561746572207468616e20300000600082015250565b600061365c601e83613615565b915061366782613626565b602082019050919050565b6000602082019050818103600083015261368b8161364f565b9050919050565b7f494e535049207072696365206d7573742062652067726561746572207468616e60008201527f2030000000000000000000000000000000000000000000000000000000000000602082015250565b60006136ee602283613615565b91506136f982613692565b604082019050919050565b6000602082019050818103600083015261371d816136e1565b9050919050565b7f55534454207072696365206d7573742062652067726561746572207468616e2060008201527f3000000000000000000000000000000000000000000000000000000000000000602082015250565b6000613780602183613615565b915061378b82613724565b604082019050919050565b600060208201905081810360008301526137af81613773565b9050919050565b6000815190506137c581613255565b92915050565b6000602082840312156137e1576137e0613082565b5b60006137ef848285016137b6565b91505092915050565b7f496e73756666696369656e7420555344542062616c616e636500000000000000600082015250565b600061382e601983613615565b9150613839826137f8565b602082019050919050565b6000602082019050818103600083015261385d81613821565b9050919050565b60006040820190506138796000830185613442565b6138866020830184613442565b9392505050565b7f496e73756666696369656e74205553445420616c6c6f77616e63650000000000600082015250565b60006138c3601b83613615565b91506138ce8261388d565b602082019050919050565b600060208201905081810360008301526138f2816138b6565b9050919050565b600061391461390f61390a8461318c565b613361565b61324b565b9050919050565b613924816138f9565b82525050565b600060608201905061393f6000830186613442565b61394c6020830185613442565b613959604083018461391b565b949350505050565b61396a81613112565b811461397557600080fd5b50565b60008151905061398781613961565b92915050565b6000602082840312156139a3576139a2613082565b5b60006139b184828501613978565b91505092915050565b7f4e487b7100000000000000000000000000000000000000000000000000000000600052601160045260246000fd5b60006139f482613148565b91506139ff83613148565b925082820190506bffffffffffffffffffffffff811115613a2357613a226139ba565b5b92915050565b7f5553445400000000000000000000000000000000000000000000000000000000600082015250565b6000613a5f600483613615565b9150613a6a82613a29565b602082019050919050565b6000604082019050613a8a6000830184613221565b8181036020830152613a9b81613a52565b905092915050565b7f496e73756666696369656e742062616c616e6365000000000000000000000000600082015250565b6000613ad9601483613615565b9150613ae482613aa3565b602082019050919050565b60006020820190508181036000830152613b0881613acc565b9050919050565b613b188161324b565b82525050565b6000604082019050613b336000830185613442565b613b406020830184613b0f565b9392505050565b7f43616e6e6f742073756273637269626520746f206672656520706c616e000000600082015250565b6000613b7d601d83613615565b9150613b8882613b47565b602082019050919050565b60006020820190508181036000830152613bac81613b70565b9050919050565b7f41637469766520737562736372697074696f6e20657869737473000000000000600082015250565b6000613be9601a83613615565b9150613bf482613bb3565b602082019050919050565b60006020820190508181036000830152613c1881613bdc565b9050919050565b7f496e73756666696369656e7420494e5350492062616c616e6365000000000000600082015250565b6000613c55601a83613615565b9150613c6082613c1f565b602082019050919050565b60006020820190508181036000830152613c8481613c48565b9050919050565b7f496e73756666696369656e7420494e53504920616c6c6f77616e636500000000600082015250565b6000613cc1601c83613615565b9150613ccc82613c8b565b602082019050919050565b60006020820190508181036000830152613cf081613cb4565b9050919050565b7f43616e6e6f7420757064617465206672656520706c616e206865726500000000600082015250565b6000613d2d601c83613615565b9150613d3882613cf7565b602082019050919050565b60006020820190508181036000830152613d5c81613d20565b9050919050565b6000608082019050613d786000830187613541565b613d856020830186613221565b613d9260408301856132ae565b613d9f60608301846132ae565b95945050505050565b7f496e76616c696420757365722061646472657373000000000000000000000000600082015250565b6000613dde601483613615565b9150613de982613da8565b602082019050919050565b60006020820190508181036000830152613e0d81613dd1565b9050919050565b6000613e1f82613550565b9150613e2a83613550565b9250828201905063ffffffff811115613e4657613e456139ba565b5b92915050565b6000606082019050613e616000830186613541565b613e6e6020830185613221565b613e7b6040830184613560565b949350505050565b7f494e535049000000000000000000000000000000000000000000000000000000600082015250565b6000613eb9600583613615565b9150613ec482613e83565b602082019050919050565b6000604082019050613ee46000830184613221565b8181036020830152613ef581613eac565b905092915050565b7f4e6f7420656c696769626c6520666f72206672656520706c616e000000000000600082015250565b6000613f33601a83613615565b9150613f3e82613efd565b602082019050919050565b60006020820190508181036000830152613f6281613f26565b9050919050565b6000613f748261324b565b9150613f7f8361324b565b9250828201905080821115613f9757613f966139ba565b5b92915050565b6000604082019050613fb26000830185613221565b613fbf6020830184613560565b9392505050565b7f4e6f2061637469766520737562736372697074696f6e00000000000000000000600082015250565b6000613ffc601683613615565b915061400782613fc6565b602082019050919050565b6000602082019050818103600083015261402b81613fef565b9050919050565b7f43616e6e6f7420756e7375627363726962652066726f6d206672656520706c6160008201527f6e00000000000000000000000000000000000000000000000000000000000000602082015250565b600061408e602183613615565b915061409982614032565b604082019050919050565b600060208201905081810360008301526140bd81614081565b9050919050565b60006020820190506140d96000830184613541565b9291505056fea26469706673582212208d6261162d9731bbce9415d946461b82c2087c1f06e2720e6600a7b651230e5264736f6c634300081c0033",
  "linkReferences": {},
  "deployedLinkReferences": {}
}